:020000040800F2
:10000000701600202102000817110008FD0F0008DB
:10001000151100088B030008811300080000000080
:10002000000000000000000000000000890100083E
:100030008D03000800000000CD0100083111000808
:100040003B0200083B0200083B0200083B0200089C
:100050003B0200083B0200083B0200083B0200088C
:100060003B0200083B0200083B0200083B0200087C
:100070003B0200083B0200083B0200083B0200086C
:100080003B0200083B0200083B0200083B0200085C
:100090003B0200083B0200083B0200083B0200084C
:1000A0003B0200083B0200083B0200083B0200083C
:1000B0003B0200083B0200083B0200083B0200082C
:1000C0003B0200083B0200083B0200083B0200081C
:1000D0003B020008751300083B0200083B020008C1
:1000E0003B0200083B0200083B02000800F002F857
:1000F00000F03AF80AA090E8000C82448344AAF188
:100100000107DA4501D100F02FF8AFF2090EBAE885
:100110000F0013F0010F18BFFB1A43F0010318473B
:10012000EC1D00000C1E0000103A24BF78C878C1F6
:10013000FAD8520724BF30C830C144BF04680C60ED
:10014000704700000023002400250026103A28BF35
:1001500078C1FBD8520728BF30C148BF0B60704739
:100160001FB51FBD10B510BD00F0D6F81146FFF742
:10017000F7FF01F016F900F0F4F803B4FFF7F2FF0F
:1001800003BC00F0FBF80000224B19680868B0E8D7
:10019000F00F80F30988BFF36F8F4FF0000080F3FA
:1001A00011884EF00D0E70470000000006480068F0
:1001B000006880F3088862B661B6BFF34F8FBFF363
:1001C0006F8F00DF00BF00BF08ED00E0EFF3098094
:1001D000BFF36F8F0F4B1A6820E9F00F106008B55E
:1001E0004FF0500080F31188BFF34F8FBFF36F8F34
:1001F00001F072FC4FF0000080F31188BDE8084068
:1002000019680868B0E8F00F80F30988BFF36F8FB2
:10021000704700BF1C000020EFF30580704700000E
:100220000948804709480047FEE7FEE7FEE7FEE78A
:10023000FEE7FEE7FEE7FEE7FEE7FEE704480549C6
:10024000054A064B7047000099110008ED000008B0
:100250007010002070160020701200207012002014
:1002600010B5203AC0F00B80B1E81850203AA0E851
:100270001850B1E81850A0E81850BFF4F5AF5FEA85
:10028000027C24BFB1E81850A0E8185044BF18C938
:1002900018C0BDE810405FEA827C24BF51F8043BDF
:1002A00040F8043B08BF7047D20728BF31F8023B33
:1002B00048BF11F8012B28BF20F8023B48BF00F8C7
:1002C000012B70474FF0000200B513469446964646
:1002D000203922BFA0E80C50A0E80C50B1F1200159
:1002E000BFF4F7AF090728BFA0E80C5048BF0CC007
:1002F0005DF804EB890028BF40F8042B08BF704765
:1003000048BF20F8022B11F0804F18BF00F8012BD6
:100310007047704770477047754600F02BF8AE463F
:1003200005006946534620F00700854618B020B501
:10033000FFF784FFBDE820404FF000064FF00007B4
:100340004FF000084FF0000B21F00701AC46ACE87D
:10035000C009ACE8C009ACE8C009ACE8C0098D46EA
:10036000704710B50446AFF300802046BDE810404A
:10037000FFF703BF00487047101000200149182004
:10038000ABBEFEE7260002007047FEE7704772B67C
:10039000FEE710B590F821100022022905D00421B3
:1003A000816380F82020012010BD01680B6823F0D4
:1003B0000E030B6001680B6823F001030B6090F8DB
:1003C0004030C46B012101FA03F3636080F821100F
:1003D00080F82020104610BD10B590F821100024A0
:1003E000022903D00421816301243DE001680A68E9
:1003F00022F00E020A6001680A6822F001020A6017
:100400001A4A0168914201D1012121E0174A1432B0
:10041000914201D110211BE0144A2832914201D1AE
:10042000891515E0114A3C32914201D189140FE03F
:100430000E4A5032914202D14FF4803108E00B4A0B
:100440006432914202D14FF4801101E04FF080718B
:10045000064A083A5160012180F82110002180F8F5
:100460002010416B01B18847204610BD08000240B2
:100470002DE9F84FDFF8B8910024A9F1040B2346C9
:100480000F2709F1040AABF1040EC9E00125A540CC
:100490002A40AA427DD1674ED1F804C0ACEB0608D1
:1004A000B44532D014DCBCF1030F3AD009DCBCF106
:1004B000000F2AD0BCF1010F1CD0BCF1020F31D1CA
:1004C0001DE0BCF1110F17D0BCF1120F2AD119E0B9
:1004D000B8F5881F19D006DCB8F5803F15D0B8F5FF
:1004E000801F1FD111E0B8F5001F0ED0B8F5041F12
:1004F00018D10AE0CB6815E0CB681B1D12E0CB6871
:1005000008330FE0CB680C330CE08B682BB1012B68
:100510004FF0080303D0456104E0042302E00561C5
:1005200000E00023FF2A01D8064601E000F104069E
:100530004FEA840501D9A5F12005D6F8008007FA15
:1005400005FC28EA0C0803FA05F548EA0508C6F890
:1005500000804D68ED0062D5374DAE6946F001066A
:10056000AE61AD6924F0030605F001050095334D39
:1005700006EB050CDCF80850A607360F07FA06F85C
:1005800025EA0805DFF8B880404503D14FF00008A0
:1005900017E044E0DFF8AC80404502D14FF001089D
:1005A0000FE0DFF8A480404502D14FF0020808E0D8
:1005B000DFF89880404502D14FF0030801E04FF08A
:1005C000040808FA06F848EA0508CCF808804D68DF
:1005D000D9F80060ED024D4601D5164300E0964380
:1005E0002E604D68DAF80060AD02554601D516431D
:1005F00000E096432E604D68DBF80060AD035D4679
:1006000001D5164300E096432E604D68DEF8006089
:10061000ED03754601D5164300E096432E60641C39
:100620000D682A46E5407FF431AFBDE8F88F000041
:1006300008040140000011100010024000000140B9
:1006400000080140000C014000100140001401406E
:100650000AB1016170470904FBE7000001488068A6
:10066000704700000C0000200248816802781144A5
:10067000816070470C000020074810B5016841F008
:1006800010010160032000F07BF80F2000F006F855
:1006900000F024F8002010BD0020024070B50D4D80
:1006A00004464FF47A712878B1FBF0F00A490968E2
:1006B000B1FBF0F000F0E2FA48B9102C07D20022AA
:1006C0002146501E00F03CF800206C6070BD0120F7
:1006D00070BD00000C000020180000200F4808B575
:1006E000816941F001018161816901F0010100919D
:1006F000C16941F08051C161C069002200F08050A1
:1007000000900F21901E00F01BF80548416821F071
:10071000E06141F00071416008BD0000001002403E
:1007200000000140002809DB00F01F020121914078
:100730004009800000F1E020C0F80011704700007F
:10074000F0B40E4B1B680C46C3F30223C3F107053C
:10075000042D00D90425191D072901D2002300E02A
:10076000DB1E012606FA05F1491E214099409E40F4
:10077000761E16403143F0BC00F003BE0CED00E0E5
:10078000064900F0070208684FF6FF03184040EAE8
:100790000220034A10430860704700000CED00E09F
:1007A0000000FA052DE9F0470F46050061D0434EE1
:1007B000306800F00700B84209D2306820F0070026
:1007C00038433060306800F00700B84251D12868E3
:1007D0003B4C810712D5400703D5606840F4E060C8
:1007E00060602878000703D5606840F4605060605E
:1007F0006068A96820F0F000084360602878C007AE
:1008000028D06868012810D02168022810D08907F4
:1008100000292EDA616821F0030101436160FFF7CE
:100820001DFF804641F288390DE021688903EFE71A
:100830008901EDE7FFF712FFA0EB0801494502D956
:100840000320BDE8F0876068696800F00C00B0EB39
:10085000810FEFD1306800F00700B8420BD9306843
:1008600020F0070038433060306800F00700B842DD
:1008700001D00120E5E72878400705D56068E968E0
:1008800020F4E060084360602878000706D56068BF
:10089000296920F4605040EAC100606000F038F837
:1008A0006168084AC1F30311515CC84006490860F9
:1008B00006480068FFF7F2FE0020C2E70020024071
:1008C00000100240CA1E000818000020100000207E
:1008D0000448054900684968044AC1F30221515C93
:1008E000C84070471800002000100240DA1E0008BF
:1008F0000448054900684968044AC1F3C221515CB3
:10090000C84070471800002000100240DA1E00089E
:100910000E4A51680E4801F00C03042B11D0082B2D
:100920000FD10C48C1F38343C903C05C0AD5516899
:10093000084AC1F34041921E515C054A5043B0FB46
:10094000F1F070470449484370470000001002402E
:1009500000127A00BA1E000800093D002DE9F84F88
:10096000040070D02078C04DC00749D06868C0F33B
:100970008100012807D06868C0F38100022809D1EE
:100980006868C00306D52868800339D560680028E8
:10099000E7D035E06068B0F5803F0BD010B1B0F51E
:1009A000A02F11D0286820F480302860286820F417
:1009B000802002E0286840F480302860606890B1B0
:1009C000FFF74CFE06460AE0286840F480202860C5
:1009D000F0E700BFFFF742FE801B642873D8286849
:1009E0008003F7D50CE0FFF739FE064605E000BFAF
:1009F000FFF734FE801B6428F0D828688003F7D402
:100A000020789A4E80074FF001094FF0000839D541
:100A1000686810F00C0F07D06868C0F381000228E6
:100A200009D16868C00306D42868800714D52069F6
:100A3000012808D110E02069B0B1C6F80090FFF796
:100A40000DFE074605E00AE1FFF708FEC01B02287D
:100A5000C4D828688007F7D52868616920F0F800B5
:100A600040EAC10028600DE0C6F80080FFF7F6FDFF
:100A7000074604E0FFF7F2FDC01B022823D82868D0
:100A80008007F7D4207800072CD57948A169D9B11F
:100A9000C0F80090FFF7E2FD074604E0FFF7DEFD37
:100AA000C01B02280FD8686A8007F7D571484FF439
:100AB000FA510068B0FBF1F0009000BF0098411EB1
:100AC0000091FAD20EE080E0C0F80080FFF7C6FD8A
:100AD000074604E0FFF7C2FDC01B022875D8686A0C
:100AE0008007F7D42078400760D5E8690027C00068
:100AF00008D4E86940F08050E861E869012700F017
:100B0000805000905C480168C90513D40168834691
:100B100041F480710160FFF7A1FD824606E000BF4D
:100B2000FFF79CFDA0EB0A0064284ED8DBF800001C
:100B3000C005F5D5E06801280AD008B1052813D012
:100B4000286A20F001002862286A20F0040002E0F0
:100B5000286A40F001002862E06841F2883B98B1C1
:100B6000FFF77CFD82460BE0286A40F00400286213
:100B7000EEE700BFFFF772FDA0EB0A0159455AD816
:100B8000286A8007F6D50CE0FFF768FD824605E08D
:100B9000FFF764FDA0EB0A0159454CD8286A80078D
:100BA000F6D41FB1E86920F08050E861E06988B3AD
:100BB0006968C1F38101022944D00228C6F8608027
:100BC00004D0FFF74BFD044638E034E0FFF746FD64
:100BD000074604E0FFF742FDC01B02282BD8286817
:100BE0008001F7D4206AB0F5803F05D16868A1681C
:100BF00020F4003008436860D4E9080108436968BC
:100C000021F4741108436860C6F86090FFF726FD70
:100C1000044606E025E000BFFFF720FD001B022888
:100C200009D828688001F7D51BE000BFFFF716FD43
:100C3000001B022802D90320BDE8F88F2868800134
:100C4000F4D40EE00128F7D06868226A00F48031FD
:100C5000914204D1616A00F47010884201D00120F1
:100C6000EAE70020E8E700000010024000004242EE
:100C700080044242180000200070004010B5401E61
:100C8000B0F1807F01D3012010BD4FF0E0246061FE
:100C90000F21601700F075FB0020A0610720206184
:100CA000002010BD70477047F8B501680446086819
:100CB000CA684B6910F00F0F4FF0000559D003F0D0
:100CC000010602F49077374365D0C10705D0D105FE
:100CD00003D5616C41F001016164410705D5D90775
:100CE00003D0616C41F002016164810705D5D90729
:100CF00003D0616C41F004016164010707D502F083
:100D00002001314303D0616C41F008016164616CE2
:100D100000293AD0800604D5900602D5204600F07E
:100D20006BFA20684069616CC0F38010090700D439
:100D300060B3204600F039FA20684069400621D5AA
:100D40002068143050E8001F21F0400140E80012F4
:100D5000002AF5D1E06BA8B16D494163E06BFFF764
:100D60003BFB002811D0E06B416B01B0BDE8F040C7
:100D7000084783060FD593060DD52046BDE8F840F9
:100D800000F03ABA2046FFF78EFFF8BD2046FFF785
:100D90008AFF6564F8BD266B2023012E7CD1C60630
:100DA0007AD5D60678D508684868009048694FF02B
:100DB0000206400640D5E16B086840680004000C5C
:100DC000E8D0A28D8242E5D9E085886920282DD01F
:100DD00020680C3050E8001F21F4807140E80012B8
:100DE000002AF5D12068143050E8001F21F00101DD
:100DF00040E80012002AF5D12068143050E8001FA6
:100E000021F0400140E80012002AF5D184F8423078
:100E1000256320680C3050E8001F21F0100140E8E5
:100E20000012002AF5D1E06BFFF7B3FA6663A08DDC
:100E3000E18D401A81B22AE0A08DE18D401A81B285
:100E4000E08D0028A6D00029A4D022680C3252E8F8
:100E5000000F20F4907042E80007002FF5D12068C1
:100E6000143050E8002F22F0010240E80027002F44
:100E7000F5D184F84230256320680C3050E8002F0B
:100E800022F0100240E80023002BF5D166632046D3
:100E9000FFF708FFF8BDFFE705062BD5150629D596
:100EA00094F841002128F5D1A068B0F5805F01D108
:100EB0002069B0B1206A411C216221680078486035
:100EC000E08C401E0004000CE084E3D12068C1687F
:100ED00021F08001C1602068C16841F04001C1601B
:100EE000D8E7206A0088C0F308004860206A801CA8
:100EF0002062E5E74006CDD55006CBD5CA6820462E
:100F000022F04002CA6084F8413000F076F8C1E770
:100F10009B11000870B5040004D094F8410000252E
:100F200010B106E0012070BD84F84050204600F06A
:100F300023F8242084F841002068C16821F400517E
:100F4000C160204600F0BAF92068016921F490419F
:100F500001612068416921F02A0141612068C1686E
:100F600041F40051C1606564202084F8410084F898
:100F700042006563002070BD30B585B00024009448
:100F80000194029403940068184988422CD11848AF
:100F9000816941F480418161816901F4804104915A
:100FA000816941F0040181618069124D00F0040003
:100FB00004904FF4007000900220019003200390F1
:100FC00069462846FFF754FA2815CDE9000469461A
:100FD00028460294FFF74CFA002205212520FFF74E
:100FE000AFFB2520FFF79EFB05B030BD0038014068
:100FF000001002400008014070477047FEE7000003
:1010000010B596B01C2211496846FFF729F9002156
:10101000684600F0E5F90E4C0C491C2220601C319A
:1010200007A8FFF71DF9002107A800F0D9F9074923
:1010300060601C2238310EA8FFF712F900210EA8BB
:1010400000F0CEF9A06016B010BD0000641E0008CC
:1010500000000020F0B585B000251D4800950195E1
:1010600002950395816941F008018161816901F070
:1010700008010491816941F0040181618069154F83
:1010800000F00400049000224FF470613846FFF72E
:10109000DFFA0320009010480124CDE901046946DD
:1010A0003846FFF7E5F94FF44060CDE90004022629
:1010B000CDE9024669463846FFF7DAF94FF4407049
:1010C0008DE8710069463846FFF7D2F905B0F0BDEA
:1010D00000100240000C0140000011100C4810B537
:1010E0000A4901604FF4E1314160002181600C2226
:1010F000C160C0E904128161C161FFF70BFF0028E4
:1011000003D0BDE81040FFF742B910BD00380140E0
:10111000D8020020FEE7FEE7012000F055F9FBE7CA
:10112000012000F051F9FBE7012000F04DF9FBE749
:1011300010B5FFF799FA00F0BFFD012803D0BDE814
:10114000104000F04BBD10BD10B590B0282168468E
:10115000FFF7B8F814210AA8FFF7B4F802200090AE
:101160000120049010200024059007946846FFF7A2
:10117000F5FB08B172B6FEE70F20CDE90A040C9426
:101180000D9400210AA80E94FFF70CFB002801D053
:1011900072B6FEE710B010BD704710B5406A00216E
:1011A000C185C184FFF77FFD10BD01680C3151E896
:1011B000002F22F4907241E80023002BF5D1016842
:1011C000143151E8002F22F0010241E80023002BE6
:1011D000F5D1016B012909D101680C3151E8002FCB
:1011E00022F0100241E80023002BF5D1202180F8E5
:1011F000421000210163704708B590F8421022297F
:1012000001D0022008BD82684FF480539A4201D178
:10121000016921B1816A9A421BD04AB10AE0026891
:10122000816A5268C2F308020A80816A891C08E058
:10123000026972B10268526802F07F020A70816A24
:10124000491C8162C18D491E0904090CC18503D066
:101250001BE002685268F1E70168CA6822F02002C8
:10126000CA600168CA6822F48072CA6001684A696B
:1012700022F001024A61202180F8421000214163DE
:10128000026B012A03D0FFF7B7FE002008BD0163FF
:1012900001680C3151E8002F22F0100241E80023D0
:1012A000002BF5D101680A68D20602D50A684968A0
:1012B0000091818DFFF7F6FCE7E7000070B504466A
:1012C00000680169E26821F440511143016121691C
:1012D000A0680843616908432168CA6841F20C6349
:1012E0009A430243CA6020684169A26921F44071AF
:1012F000114341611E492068884202D1FFF7F8FA84
:1013000001E0FFF7E5FA00EBC00101EB00126068B5
:1013100064218000B2FBF0F3B3FBF1F36FF0180629
:101320007343B2FBF0F5B2FBF0F605EB8305322315
:1013300003EB0515B5FBF1F5B6FBF1F605F0F0058D
:1013400005EB0615B2FBF0F6B2FBF0F0B0FBF1F0E6
:101350006FF01802504306EB800003EB0010B0FB67
:10136000F1F0216800F00F002844886070BD000093
:10137000003801400148FFF797BC0000D802002068
:10138000FEE70907090E002804DB00F1E02080F8E1
:101390000014704700F00F0000F1E02080F8141DE9
:1013A0007047FFF769F9FFF7CFFEFFF753FEFFF72E
:1013B00095FEFFF725FE00F00EF8FEE7014600203F
:1013C000842900D0C81C704710B500B9012000F076
:1013D0001FFB002010BD10B500F040FB002010BD29
:1013E0007FB50D4604464169B0F9080081B1A16995
:1013F00071B1FFF7E3FFD4E905128DE80700D4E9E6
:1014000000102B46226900F02CFC039004B070BD44
:10141000FFF7D4FF03A9CDE90001208A2B4682B251
:10142000D4E9001000F0F0FB012801D00020EDE726
:101430000398EBE72DE9F041184C0F460546E668A6
:101440002068001D00F01CFA38B9206890F82C10B4
:1014500001208840216981432161681C07D137B18F
:101460002168BDE8F0410E48091D00F04DBA206822
:101470003544B5424560216805D2A06BBDE8F04116
:10148000091D00F029BA606B091D00F025FAA06A59
:10149000854200D2A562BDE8F08100001C0000205A
:1014A000FC0300202DE9F041054600F039FA2E4CEE
:1014B000A068401CA06020682C4F10B1606940B348
:1014C0002DE02560A068012829D1002606EB8600C2
:1014D00007EB800000F0F2F9761C072EF6D32348C4
:1014E0008C3000F0EBF92148A03000F0E7F91F48FC
:1014F000B43000F0E3F91D48C83000F0DFF91B48B4
:10150000DC3000F0DBF919488C3060631430A063E4
:1015100005E02068E96AC06A884200D82560606AF0
:10152000401C6062E96A0120226988401043206102
:1015300001EB810007EB8000291D00F0E5F900F0C8
:101540000FFA606900280CD02068E96AC06A8842F6
:1015500007D207494FF080500860BFF34F8FBFF3A9
:101560006F8FBDE8F08100001C00002020030020E8
:1015700004ED00E010B5044690F8510058B1012880
:101580000CD002280FD0502080F31188BFF34F8F6A
:10159000BFF36F8FFEE7206B00F0F6F92046BDE841
:1015A000104000F0F1B910BD10484FF440614207FF
:1015B00006D0C01D0D4920F00700411AC1F5406159
:1015C0000B4A00230144C2E900030839183A21F00C
:1015D000070111604B600B600B1AC0E900139360A8
:1015E0004FF000405360506170470000100400202D
:1015F00070000020144E154CA6F1C8074FF080581B
:10160000DFF84C9012E000BF00F08AF9F068C5687E
:10161000281D00F035F9A068401EA0606068401EDB
:10162000606000F09DF92846FFF7A4FF606800287D
:10163000EAD138680128F9D9C9F80080BFF34F8F83
:10164000BFF36F8FF2E70000E80300201C000020CA
:1016500004ED00E02DE9F0479A46DDE90984814672
:101660006FF00303206B03EB82021044089E20F00E
:101670000707780707D0502080F31188BFF34F8FFA
:10168000BFF36F8FFEE7002561B1002023180A5CCD
:1016900083F834200A5C12B1401C1028F6D384F879
:1016A000435001E084F83450072E00D30626E6624A
:1016B000C4E91165201D00F00CF904F1180000F0D8
:1016C00008F92461C6F107006462A061E56484F84A
:1016D000505052464946384600F0C0F82060B8F1F4
:1016E000000F01D0C8F80040BDE8F08730B51149BF
:1016F00000E011460A688242FBD34B685C188442C2
:1017000003D1406818444860084643681C18944256
:1017100009D1084C183C2468A24209D052681A44E6
:1017200042600A6812680260814200D0086030BDE1
:101730000460F9E7700000200648416B096829B190
:10174000416BC968C9684968816270474FF0FF31D1
:10175000FAE700001C00002008484068401C4FF0D9
:10176000500080F3118804D0BFF34F8FBFF36F8F09
:10177000FEE7BFF34F8FBFF36F8FFEE778000020C7
:101780002DE9F0410546002700F09EF9324E306801
:1017900008B9FFF709FF706905424ED1C5B3083596
:1017A00068070ED005F00700C0F10800054468077F
:1017B00007D0502080F31188BFF34F8FBFF36F8F96
:1017C000FEE72DB37068854237D8234818300146AC
:1017D0000C6801E020460C466168A94202D22168EB
:1017E0000029F7D131688C4227D007682168016051
:1017F00060680837411B10290FD96019420708D0CB
:10180000502080F31188BFF34F8FBFF36F8FFEE737
:1018100013E041606560FFF769FF61687068401A16
:101820007060B268904200D2B060706901430020DD
:10183000C4E90001F068401CF06000F0B1FA7807DC
:1018400007D0502080F31188BFF34F8FBFF36F8F05
:10185000FEE73846BDE8F0815800002010B5031FB0
:101860004FF080741C601B1F21F001011960191FCB
:10187000024B0B60143940380A6010BD591700083C
:10188000D0E9013201699A60D0E901235A604A68BF
:10189000824201D182684A60002202610868401ECB
:1018A0000860086870470000034B036003F15400B0
:1018B00008608020106070478400002000F108015B
:1018C0004FF0FF32C0E90112C160016100210160E7
:1018D000704700210161704730B50B685A1C02D077
:1018E00000F1080202E0026904E02246546825681B
:1018F0009D42FAD953684B6099608A6051600861D3
:101900000168491C016030BD42684A6093688B6081
:1019100093685960916008610168491C01607047D3
:10192000502080F31188BFF34F8FBFF36F8F0A49A8
:101930004868401C486001280CD10848006810F035
:10194000FF0F07D0502080F31188BFF34F8FBFF3F4
:101950006F8FFEE7704700007800002004ED00E084
:101960000849486828B1401E486001D180F31188B9
:101970007047502080F31188BFF34F8FBFF36F8FF4
:10198000FEE700007800002070B500282AD0164D30
:10199000A0F1080460686969084207D1502080F30B
:1019A0001188BFF34F8FBFF36F8FFEE722683AB104
:1019B000502080F31188BFF34F8FBFF36F8FFEE786
:1019C0008843606000F080F8606869680844686077
:1019D0002046FFF78BFE2869401C2861BDE8704057
:1019E00000F0DEB970BD0000580000204FF0E0208C
:1019F00000210161816105494FF47A720968B1FBE8
:101A0000F2F1491E41610721016170471800002071
:101A100010B5020014D00F48006B38B1502080F38D
:101A20001188BFF34F8FBFF36F8FFEE700F04CF8C4
:101A300000211046FFF7FEFC00F0B2F9002807D1A4
:101A400005494FF080500860BFF34F8FBFF36F8F91
:101A500010BD00001C00002004ED00E010B586B0B1
:101A60000024039405AA04A903A80494FFF71CFF0B
:101A7000DDE903010094CDE9011000230EA1104817
:101A8000059A00F0EEF80F490028C86211D05020E6
:101A900080F31188BFF34F8FBFF36F8F4FF0FF308C
:101AA000886201204861CC6006B0BDE8104000F0BB
:101AB00041B806B010BD000049444C45000000008C
:101AC000F51500081C0000200248016B491C016349
:101AD000704700001C0000201448016B11B1012167
:101AE000C16170470021C1610169B1FA81F1C1F1A1
:101AF0001F0101EB81020E4951F822306BB101EB5D
:101B0000820101F108034A6852684A609A4201D191
:101B100052684A60D16801607047502080F3118894
:101B2000BFF34F8FBFF36F8FFEE700001C00002054
:101B3000200300201CB5264908780190FF2008707A
:101B400008788DF800009DF800009DF8002000F056
:101B5000F000904207D0502080F31188BFF34F8FE0
:101B6000BFF36F8FFEE79DF800001A4C00F05000A5
:101B700020700720A06005E09DF8002052008DF83D
:101B80000020401E9DF800201206F5D4A060032816
:101B900007D0502080F31188BFF34F8FBFF36F8FB2
:101BA000FEE74FF44070A060019808700A48016891
:101BB00041F470010160016841F070410160FFF77C
:101BC00015FF00206060FEF7F1FA00201CBD000048
:101BD00000E400E07800002020ED00E010B5502087
:101BE00080F31188BFF34F8FBFF36F8F00F072F84F
:101BF00018B104494FF080500860002080F311882C
:101C000010BD000004ED00E02DE9FF5F8346DDE933
:101C10000E87994616468A469000FFF7B1FD0500EB
:101C20001CD05420FFF7ACFD040014D00020256325
:101C300084F85100CDE90240CDE900874B46324699
:101C400051465846FFF706FD2046FFF72BFC0120C2
:101C500004B0BDE8F09F2846FFF796FE4FF0FF3036
:101C6000F6E7F0B585B0DDE90B640A9DA6B1DCB1FD
:101C7000542700972663022684F85160002604AF9B
:101C8000CDE90246CDE90057FFF7E4FC2046FFF717
:101C900009FC049805B0F0BD502080F31188BFF313
:101CA0004F8FBFF36F8FFEE7502080F31188BFF393
:101CB0004F8FBFF36F8FFEE70548416919B1006B85
:101CC00018B10020704701207047022070470000C3
:101CD0001C0000202DE9F0412F4C0026206B28B17C
:101CE000A069401CA0613046BDE8F081E5686D1C2C
:101CF000E56013D1606B006838B1502080F3118823
:101D0000BFF34F8FBFF36F8FFEE7606BA16B616313
:101D1000A063206A401C2062FFF70EFDA06ADFF876
:101D20007C80854209D3606B0068A0B1606BC0689D
:101D3000C7687868854211D2A0622068C06A00EB4B
:101D4000800158F82100012800D90126E069002807
:101D5000C9D00126C7E74FF0FF30EDE7381DFFF788
:101D60008FFDB86A18B107F11800FFF789FDF96A0D
:101D70000120226988401043206101EB810108EBBA
:101D80008100391DFFF7C0FDF86A2168C96A8842E1
:101D9000C9D30126C7E700001C0000202003002053
:101DA0002DE9F0472C4D00242746286B38B1FFF76A
:101DB000B7FD286B401E2863286B40B146E05020D9
:101DC00080F31188BFF34F8FBFF36F8FFEE7A968D1
:101DD000224E0120D1B3A6F1B40980463068E8B1A3
:101DE000F068C46804F11800FFF74AFD201DFFF7F2
:101DF00047FDE06A2A6908FA00F11143296100EB06
:101E0000800109EB8100211DFFF77EFDE06A296852
:101E1000C96A8842E2D3C5F81C80DFE70CB1FFF73E
:101E20008BFCAC6944B14646FFF754FF00B1EE614C
:101E3000641EF9D10020A861E86938B1084901277A
:101E400038070860BFF34F8FBFF36F8FFFF788FD30
:101E50003846BDE8F08700001C000020D4030020B5
:101E600004ED00E0E41E000821110008000000005D
:101E700000000000800000000000000000000000E2
:101E8000001F000829110008FDFF000000000000ED
:101E9000800000000000000000000000F01E0008AC
:101EA00019110008FDFF0000000000008000000084
:101EB0000000000000000000010202030405060704
:101EC00008090A0B0C0D0E0F101000000000000096
:101ED00000000102030406070809000000000102D7
:101EE0000304000064656661756C745461736B0073
:101EF000636F756E7465725F7461736B00000000D0
:101F00007365675F646973706C6179002C1F0008EA
:101F1000000000208400000028010008B01F000815
:101F200084000020EC1500004401000800000000BF
:101F30000000000000000000010000001000000090
:101F40000000000000127A00000000000000000005
:101F50000000000000000000000000000000000081
:101F60000000000000000000000000000000000071
:101F70000000000000000000000000000000000061
:101F80000000000000000000000000000000000051
:101F90000000000000000000000000000000000041
:101FA0000000000000000000AAAAAAAA0000000089
:04000005080000ED02
:00000001FF
