:020000040800F2
:10000000D82000209D010008CD22000863200008B0
:10001000C9220008C5070008F528000800000000F4
:1000200000000000000000000000000005010008C2
:10003000090A00080000000049010008EF23000839
:10004000B7010008B7010008B7010008B7010008B0
:10005000B7010008B70100080B0A0008150A0008DC
:10006000B7010008B7010008B7010008B701000890
:10007000B7010008B7010008B7010008B701000880
:10008000B7010008B7010008B7010008B701000870
:10009000B7010008B7010008B7010008B701000860
:1000A000B701000855240008B7010008B70100088F
:1000B000B7010008B7010008B7010008B701000840
:1000C000B7010008B7010008B7010008B701000830
:1000D000B7010008E5280008B7010008B7010008CB
:1000E000B7010008B7010008B7010008DFF810D019
:1000F00000F0CAFA0048004761320008AFF3008000
:10010000D8200020224B19680868B0E8F00F80F36F
:100110000988BFF36F8F4FF0000080F311884EF015
:100120000D0E70470000000006480068006880F36C
:10013000088862B661B6BFF34F8FBFF36F8F00DFE1
:1001400000BF00BF08ED00E0EFF30980BFF36F8F41
:100150000F4B1A6820E9F00F106008B54FF05000FF
:1001600080F31188BFF34F8FBFF36F8F03F0DEFF73
:100170004FF0000080F31188BDE808401968086856
:10018000B0E8F00F80F30988BFF36F8F704700BFAE
:1001900024000020EFF305807047000006488047E8
:1001A00006480047FEE7FEE7FEE7FEE7FEE7FEE75C
:1001B000FEE7FEE7FEE7FEE753240008ED00000837
:1001C0002DE9F0410024061B254671F1000605DAF1
:1001D00001240027D0EB070067EB0101161E73F125
:1001E000000605DA0027D2EB0702012567EB0303BF
:1001F00000F061F886460E4617469C46AC4204D095
:100200000025D0EB050E65EB010624B10020D2EBF2
:10021000000760EB030C704631463A466346BDE882
:10022000F081202A04DB203A21FA02F000217047F5
:1002300021FA02F3D040C2F120029140084319464E
:10024000704740EA01039B0703D009E008C9121F69
:1002500008C0042AFAD203E011F8013B00F8013B80
:10026000521EF9D27047D2B201E000F8012B491EAC
:10027000FBD270470022F6E710B513460A46044643
:100280001946FFF7F0FF204610BD30B50B4601467A
:1002900000202022012409E021FA02F59D4205D325
:1002A00003FA02F5491B04FA02F52844151EA2F1CF
:1002B0000102F1DC30BD2DE9F05F054600209246D9
:1002C0009B4688460646814640241BE02846414618
:1002D00047462246FFF7A5FF53465A46C01A9141AA
:1002E00010D311461846224600F0E0F92D1A67EBAC
:1002F00001084F4622460120002100F0D7F917EBF4
:1003000000094E41201EA4F10104DFDC48463146BD
:100310002A464346BDE8F09F2DE9FE4F804681EA1C
:100320000300C00F0C46009021F0004123F000456F
:10033000B8EB0200A94105D24046214690461C4632
:100340000B46024623F00040104347D0270DC7F369
:100350000A00C3F30A510290401A019040286BDA58
:10036000C3F3130040F4801B0098924620B1002391
:10037000D2EB030A63EB0B0B01985946C0F1400224
:10038000504600F093F906460D4650465946019AEC
:1003900000F09BF910EB08006141002487EA11523C
:1003A00084EAE7731A4340D0009A62B3019A012AA3
:1003B0004FEA075215DC001B61EB02014FF00042CF
:1003C00002EA0752CDE90042001C41F58011324695
:1003D0002B4600F09BF903B0BDE8F08F4046214664
:1003E000F9E7001B61EB0201001C41F580130018C6
:1003F0005B412018A2F5001747EB030140EAD570D6
:10040000B6196D4111E06D084FEA360645EAC07530
:100410004FEA0752001B61EB0201001C41F58011FD
:1004200049084FEA30000019514132462B4603B0CB
:10043000BDE8F04F00F05BB90098012240000023B6
:10044000D0EB020263EBE073009821464FEAE074C0
:10045000B8EB000061EB0401E9E783F000435BE7E0
:1004600081F0004158E72DE9FE4F81EA030404F0D2
:10047000004421F0004100944FF0000B23F00043B2
:1004800050EA01045ED052EA03045BD0C3F30A547D
:10049000C1F30A552C44A4F2F3340194A0FB025496
:1004A000C1F3130141F48011C3F3130343F4801328
:1004B00001FB024400FB034E840A970A44EA81547C
:1004C00047EA8357A4FB076802958D0A05FB078559
:1004D0004FEA932C04FB0C542705029D4FEA065863
:1004E00047EA1637B5EB08056EEB070C870E920E40
:1004F00047EA811742EA8312A7FB0201B6EB0B0120
:1005000064EB00042B0D43EA0C335E1844EB1C50E3
:10051000DA465146E7FB0201C5F313044FEA0B33F9
:1005200043EA14534FEA0432019C43EA0603A4F160
:100530000C040294009CCDE900B400F0E7F803B08D
:10054000BDE8F08F00200146F9E72DE9F04D81EA82
:10055000030404F0004B21F0004514464FF0000A5C
:1005600023F0004150EA050220D054EA01021DD0D8
:10057000C5F30A570246C5F31303C1F31300C1F3D1
:100580000A5640F4801543F48013A7EB0608101BAD
:10059000D64608F2FD3873EB050002D308F10108D6
:1005A00001E092185B41B8F1000F03DA0020014628
:1005B000BDE8F08D00204FF48011064684460EE021
:1005C000171B73EB050705D3121B63EB05030643EB
:1005D0004CEA010C49084FEA300092185B4150EA9E
:1005E0000107EDD152EA030012D082EA040083EA47
:1005F0000501084305D0101BAB4106D201220023A0
:1006000006E000224FF0004302E06FF001025310B9
:100610001AEB06004CEB085110EB0A0041EB0B0102
:10062000BDE8F04D00F063B8C1F30A52C1F3130105
:1006300040F2FF3341F480119A4202DA0020014671
:10064000704740F233439A42A2F2334202DC5242F4
:10065000FFF7E7BD00F02AB830B5041E71F10004C1
:1006600004DB4FF00044404264EB0101141E73F1BF
:10067000000405DB1C464FF00043524263EB0403C9
:10068000994208BF904230BD064C074D06E0E06835
:1006900040F0010394E8070098471034AC42F6D3C9
:1006A000FFF728FD84470008A4470008202A04DB40
:1006B000203A00FA02F1002070479140C2F1200375
:1006C00020FA03F3194390407047202A06DBCB172A
:1006D000203A41FA02F043EAE07306E041FA02F3FD
:1006E000D040C2F12002914008431946704710B52E
:1006F000141E73F1000408DA401C41F10001921845
:100700005B411A4301D120F0010010BD2DE9F04DED
:1007100092469B4611B1B1FA81F202E0B0FA80F242
:1007200020329046FFF7C2FF04460F4640EA0A0017
:1007300041EA0B0153465A46084313D0114653EA87
:10074000010019D0C8F140025046FFF76AFD054686
:100750000E46504659464246FFF7A8FF084305D0CB
:10076000012004E020463946BDE8F08D0020054315
:1007700046EAE0762C4337430A986305E40AA0EB87
:1007800008000022FD0A44EA47540A3002D500203E
:100790000146E9E7010510196941DDE9084500193D
:1007A0006941BDE8F04DA2E7054A116800E0496BD8
:1007B0000029FCD1024A12684263014A1060704766
:1007C0008C00002000BFFEE710B5034600240BB9E3
:1007D000002010BD08290AD1002405E003F10C0017
:1007E00040F82420601CC4B2082CF7DB03E003F1BE
:1007F0000C0040F821200120EBE7000010B50A4A68
:100800000A490BA000F024F80B4A00210748FFF723
:10081000DBFF0A4A0A490BA000F01AF80B4A002134
:100820000748FFF7D1FF10BDF9220008141C002073
:1008300070617573650000003533000815230008EA
:100840004C1C00207265736574000000413900087B
:1008500070B505460C4616460CB9002070BD38210F
:100860002046FFF707FD05222946201D01F0A5FDC2
:100870000A206072E0722660A07A20F00300401C1B
:10088000A07220688047A17A60F38301A1720020E2
:1008900084F831002046FFF787FF0120DEE770B5BE
:1008A0000446206880470546A07AC0F38100A8422C
:1008B00021D094F83100401CC0B284F831000128E6
:1008C00019DDA07A65F38300A072002084F831005E
:1008D000607A0A280AD1A07AC0F38100A17A01F0D7
:1008E0000301884202D1002060720CE0607A50B9A6
:1008F0000120607207E0A07AC0F38100A84202D113
:10090000002084F83100607A10B101286BD13FE0FB
:10091000A07AC0F38100A17A01F00301884236D1A8
:1009200014F8330F401C207014F83309642805DADA
:10093000E07A022802D00020E07221E094F833002F
:10094000642807D10420E072E069C8B12046E1695B
:10095000884715E094F83300642811DD94F83000DE
:10096000401CC0B284F83000642809DB002084F801
:1009700030000420E072E06910B12046E169884748
:1009800094F83300FF2802D1652084F833002BE06F
:10099000E07A58B9E06810B12046E1688847002045
:1009A00084F833000A206072E0721BE0E07A0628C7
:1009B00008D1002084F8330084F830000A206072E7
:1009C000E0720FE0E07A04280CD1206A10B12046D2
:1009D000216A8847002084F8330084F830000A2018
:1009E0006072E07200E000BF00BF70BD10B5054846
:1009F000046803E02046FFF752FF646B002CF9D136
:100A000010BD00008C000020704710B5012000F0E0
:100A1000B9F810BD10B5022000F0B4F810BD72B6E0
:100A200000BFFEE70146002291F82100022808D00D
:100A30000420886300BF002081F8200000BF01204F
:100A400070470868006820F00E000B68186008689E
:100A5000006820F001000B68186091F84030012018
:100A60009840CB6B5860012081F8210000BF002026
:100A700081F8200000BF1046E2E7000070B5044690
:100A8000002594F82100022803D00420A06301254A
:100A900048E02068006820F00E00216808602068A7
:100AA000006820F00100216808601F492068884222
:100AB00001D1012026E01C4914312068884201D16F
:100AC00010201FE0184928312068884201D1801584
:100AD00018E015493C312068884201D1801411E0AA
:100AE000114950312068884202D14FF4803009E02A
:100AF0000D4964312068884202D14FF4801001E032
:100B00004FF08070084908394860012084F82100BE
:100B100000BF002084F8200000BF606B10B12046A9
:100B2000616B8847284670BD0800024070B50446D6
:100B300000F0D4F906462546681C10B10448007838
:100B4000054400BF00F0CAF9801BA842FAD370BD6B
:100B50001C00002010B5022811D10949098901297A
:100B600004D1074A06CA064B06C308E00449D1E986
:100B70000041631C41F10001014AC2E9003110BD8E
:100B8000C81C002010B5044604480068204020B16D
:100B9000024804602046FFF7DDFF10BD1404014049
:100BA0002DE9F8470346002294466EE14FF0010814
:100BB00008FA02F4D1F8008008EA0400A0427DD1CE
:100BC000DFF8DCA2D1F80480A8EB0A09D0453AD0BE
:100BD00014DCB8F1030F50D009DCB8F1000F31D0AC
:100BE000B8F1010F1CD0B8F1020F49D120E0B8F1E3
:100BF000110F18D0B8F1120F42D11EE0B9F5881FBD
:100C000025D006DCB9F5803F20D0B9F5801F37D15B
:100C10001AE0B9F5001F18D0B9F5041F30D117E05C
:100C2000D1F80CC02DE0D1F80C8008F1040C28E0BC
:100C3000D1F80C8008F1080C23E0D1F80C8008F101
:100C40000C0C1EE000BF00BF00BF00BF00BF00BF14
:100C5000D1F80880B8F1000F02D14FF0040C0BE07E
:100C6000D1F80880B8F1010F03D14FF0080C1C61D6
:100C700002E04FF0080C5C6103E04FF0000C00E074
:100C800000BF00BFFF2801D8984601E003F1040827
:100C90004646FF2802D84FEA820803E0A2F108087E
:100CA0004FEA88084746D6F800804FF00F0909FA46
:100CB00007F928EA09080CFA07F900E088E048EA91
:100CC0000908C6F80080D1F8048008F08058B8F10F
:100CD000805F7DD100BFDFF8CC81D8F8188048F064
:100CE0000108DFF8C091C9F81880C846D8F8188004
:100CF00008F00108CDF8008000BF00BF4FEAB93806
:100D00004FEA920958F829504FEA82784FEA187949
:100D10004FF00F0808FA09F825EA0805DFF888817E
:100D2000434502D14FF0000816E0DFF880814345CB
:100D300002D14FF001080FE0DFF87481434502D182
:100D40004FF0020808E0DFF86C81434502D14FF014
:100D5000030801E04FF004084FEA82794FEA19795D
:100D600008FA09F848EA0505DFF84C814FEA9209CC
:100D700048F82950D1F8048008F48018B8F5801F8D
:100D80000AD1DFF83881D8F8008048EA0008DFF897
:100D90002C91C9F8008009E0DFF82081D8F80080A4
:100DA00028EA0008DFF81491C9F80080D1F804801F
:100DB00008F40018B8F5001F10D1DFF8008108F121
:100DC0000408D8F8008048EA0008DFF8F09000E056
:100DD0005AE009F10409C9F800800DE0DFF8DC8071
:100DE00008F10408D8F8008028EA0008DFF8CC9061
:100DF00009F10409C9F80080D1F8048008F400382A
:100E0000B8F5003F0ED1DFF8B480A8F10408D8F897
:100E1000008048EA0008DFF8A490A9F10409C9F8A5
:100E200000800DE0DFF89480A8F10408D8F8008075
:100E300028EA0008DFF88490A9F10409C9F80080C5
:100E4000D1F8048008F48038B8F5803F0ED1DFF87F
:100E50006C80A8F10808D8F8008048EA0008DFF89C
:100E60005C90A9F10809C9F800800DE0DFF84C801A
:100E7000A8F10808D8F8008028EA0008DFF83C90BC
:100E8000A9F10809C9F80080521CD1F8008028FA9D
:100E900002F8B8F1000F7FF489AEBDE8F8870000D2
:100EA000000011100010024000080140000C014039
:100EB00000100140001401400800014008040140F6
:100EC000024693680B400BB1012000E00020704700
:100ED0000AB1016101E00B04036170470148006839
:100EE0007047000014000020034800680349097897
:100EF0000844014908607047140000201C000020CD
:100F000010B50848006840F010000649086003204A
:100F100000F0AEF80F2000F007F800F02BF80020EA
:100F200010BD00000020024070B504460E48007855
:100F30004FF47A71B1FBF0F00C490968B1FBF0F5A0
:100F4000284600F0FFFB08B1012070BD102C07D22D
:100F500000222146501E00F04DF80548046001E0D3
:100F60000120F2E70020F0E71C0000202000002014
:100F70001800002008B500BF1448806940F0010047
:100F8000124988610846806900F00100009000BFA6
:100F900000BF00BF0846C06940F08050C8610846E5
:100FA000C06900F08050009000BF00BF00220F21F8
:100FB000901E00F01FF800BF0549486820F0E0606F
:100FC00040F00070486000BF08BD00000010024003
:100FD0000000014001460846002809DB00F01F031D
:100FE00001229A4043099B0003F1E023C3F800214A
:100FF00000BF70472DE9F05F80460D46164600277A
:1010000001F0A4FC074639462A46334601F00700A2
:10101000C0F1070ABAF1040F02D94FF0040A01E047
:10102000C0F1070AD14600F1040ABAF1070F02D253
:101030004FF0000A01E0A0F1030AD4464FF0010A84
:101040000AFA09FAAAF1010A0AEA020A0AFA0CFAE9
:101050004FF0010B0BFA0CFBABF1010B0BEA030B8E
:101060004AEA0B042146404601F078FCBDE8F09FB7
:1010700000BF00F00702064B19684FF6FF03194046
:10108000044B0B4343EA0221014B196000BF704738
:101090000CED00E00000FA0570B504460D460CB9F1
:1010A000012070BD5A48006800F00700A8420ED227
:1010B0005748006820F00700284355490860084653
:1010C000006800F00700A84201D00120E9E720787D
:1010D00000F0020002281DD1207800F0040004284E
:1010E00005D14C48406840F4E0604A4948602078A7
:1010F00000F00800082805D14648406840F46050D8
:10110000444948604348406820F0F000A168084323
:1011100040494860207800F0010078B360680128F9
:1011200006D13C48006800F4003090B90120B8E7CF
:101130006068022806D13748006800F0007040B9A6
:101140000120AEE73348006800F0020008B9012032
:10115000A7E73048406820F00300616808432D4944
:101160004860FFF7BBFE064609E0FFF7B7FE801BAD
:1011700041F28831884202D9032092E707E02548EE
:10118000406800F00C006168B0EB810FEDD12048A1
:10119000006800F00700A8420ED91D48006820F042
:1011A000070028431A4908600846006800F0070055
:1011B000A84201D0012074E7207800F00400042840
:1011C00007D11448406820F4E060E1680843114901
:1011D0004860207800F00800082808D10D484068D1
:1011E00020F46050216940EAC1000A49486000F0DB
:1011F0003FF808494968C1F30311074A515CC840E8
:101200000649086006480068FFF78EFE002048E7A0
:1012100000200240001002400E470008200000207D
:1012200018000020014800687047000020000020DE
:1012300000B5FFF7F7FF04494968C1F30221034AEB
:10124000515CC84000BD0000001002401E4700086D
:1012500000B5FFF7E7FF04494968C1F3C221034A1B
:10126000515CC84000BD0000001002401E4700084D
:1012700070B500210022002400230020134D69686E
:1012800001F00C05F5B1042D02D0082D19D101E0B3
:101290000F4819E00F4DC1F38346AB5D01F4803573
:1012A00055B10A4D6D68C5F340450B4E725D084D52
:1012B0005D43B5FBF2F402E0084D03FB05F4204664
:1012C00002E000BF024800BF00BF70BD0010024036
:1012D00000127A00FC4600080C47000800093D0097
:1012E000F8B504460CB90120F8BD207800F00100E3
:1012F000002878D0F848406800F00C0004280CD092
:10130000F548406800F00C00082811D1F248406808
:1013100000F48030B0F5803F0AD1EF48006800F457
:10132000003000285FD0606800285CD10120DBE736
:1013300000BF6068B0F5803F06D1E748006840F420
:101340008030E549086028E0606858B9E2480068E4
:1013500020F48030E04908600846006820F48020CE
:1013600008601AE06068B0F5A02F0BD1DA48006879
:1013700040F48020D84908600846006840F4803076
:1013800008600AE0D448006820F48030D249086040
:101390000846006820F48020086000BF606888B1BB
:1013A000FFF79CFD054606E0FFF798FD401B64280B
:1013B00001D9032098E7C848006800F400300028ED
:1013C000F2D010E0FFF78AFD054606E0FFF786FD44
:1013D000401B642801D9032086E7BF48006800F459
:1013E00000300028F2D1207800F00200022857D106
:1013F000B948406800F00C0050B1B748406800F0B0
:101400000C00082818D1B448406800F4803098B91E
:10141000B148006800F0020020B12069012801D025
:10142000012061E7AC48006820F0F800616940EAFB
:10143000C100A949086033E02069E8B10120A7494B
:101440000860FFF74BFD054606E0FFF747FD401B30
:10145000022801D9032047E79F48006800F00200F6
:101460000028F2D09C48006820F0F800616940EA4A
:10147000C1009949086013E0002098490860FFF70F
:101480002DFD054606E0FFF729FD401B022801D986
:10149000032029E79048006800F002000028F2D1FC
:1014A000207800F0080008282DD1A069B8B10120EB
:1014B0008B490860FFF712FD054606E0FFF70EFDB9
:1014C000401B022801D903200EE78348406A00F040
:1014D00002000028F2D0012000F0FAFE13E0002004
:1014E0007F490860FFF7FAFC054606E0FFF7F6FCC7
:1014F000401B022801D90320F6E67748406A00F035
:1015000002000028F2D1207800F00400042873D1F2
:1015100000277148C06900F0805070B900BF6E4864
:10152000C06940F080506C49C8610846C06900F04D
:101530008050009000BF00BF01276A48006800F497
:101540008070B0B96748006840F4807065490860F1
:10155000FFF7C4FC054606E0FFF7C0FC401B64280B
:1015600001D90320C0E65F48006800F480700028BD
:10157000F2D000BFE068012806D15748006A40F069
:1015800001005549086227E0E06858B95248006AEE
:1015900020F00100504908620846006A20F004006B
:1015A000086219E0E06805280BD14B48006A40F05A
:1015B0000400494908620846006A40F001000862D8
:1015C0000AE04548006A20F00100434908620846E5
:1015D000006A20F00400086200BFE068A0B1FFF7D5
:1015E0007DFC054609E0FFF779FC401B41F288319C
:1015F000884202D9032077E622E03748006A00F0EB
:1016000002000028EFD012E0FFF768FC054608E072
:10161000FFF764FC401B41F28831884201D9032066
:1016200062E62D48006A00F002000028F0D1012F88
:1016300005D12948C06920F080502749C86100BF02
:10164000E069C8B32448406800F00C00082860D066
:10165000E069022848D1002020490866FFF73EFCD7
:10166000054606E0FFF73AFC401B022801D903209B
:101670003AE61948006800F000700028F2D1206AAC
:10168000B0F5803F07D11448406820F40030A168CD
:10169000084311494860D4E9080108430E494968E4
:1016A00021F4741108430C49486001200B49086675
:1016B000FFF714FC054607E03DE0FFF70FFC401B79
:1016C000022801D903200FE60348006800F00070EB
:1016D0000028F2D02FE0000000100240000042423B
:1016E0008004424200700040002014490866FFF761
:1016F000F5FB054606E0FFF7F1FB401B022801D988
:101700000320F1E50E48006800F000700028F2D1D7
:1017100011E0E069012800D1E6E50948466806F4D1
:101720008031206A814204D106F47011606A8142DE
:1017300001D00120D8E50020D6E50000000042429B
:101740000010024070B504462546681EB0F1807F47
:1017500001D301200FE0681E4FF0E02148610F2106
:101760004FF0FF3001F0FAF800204FF0E0218861DF
:1017700007200861002070BD7047704730B50246F1
:101780000B4600BF92F83C00012801D1022030BD79
:10179000012082F83C0000BF022082F83D00106862
:1017A00044681068816824F0700418680443106865
:1017B0004460104D1068A8420BD01068B0F1804F03
:1017C00007D00D4D1068A84203D00C4D1068A842F8
:1017D00005D121F080015868014310688160012023
:1017E00082F83D0000BF002082F83C0000BF00BF2F
:1017F000CDE70000002C014000040040000800403C
:1018000010B504460CB9012010BD94F83D0028B96C
:10181000002084F83C00204600F026F8022084F8DE
:101820003D00211D206800F01DFE012084F84600C7
:1018300000BF84F83E0001213F20015540200155A2
:101840004120015500BF00BF012084F84200432021
:101850000155442001554520015500BF012084F861
:101860003D000020D0E7000008B5094A0168914218
:101870000DD100BF0749896941F40061054A9161B2
:101880001146896901F40061009100BF00BF08BDE5
:10189000002C014000100240014691F83D00012853
:1018A00001D001207047022081F83D000868C0681F
:1018B00040F001000B68D860124B086898420BD0CA
:1018C0000868B0F1804F07D00F4B0868984203D0EA
:1018D0000E4B086898420CD10868806800F0070237
:1018E000062A0CD00868006840F001000B681860F8
:1018F00005E00868006840F001000B6818600020EF
:10190000D0E70000002C0140000400400008004027
:101910002DE9F04104460D46002700BF94F83C0035
:10192000012802D10220BDE8F081012084F83C00AA
:1019300000BF022084F83D002068866826F0770604
:1019400026F47F46206886602868502833D00CDC57
:10195000202850D004DC00284BD0102851D149E079
:10196000302849D040284CD139E060282DD070284B
:1019700007D0B0F5805F03D0B0F5005F41D10DE036
:1019800041E0D5E902136A68206800F0ADFD2068E7
:10199000866846F077062068866034E0D5E9021351
:1019A0006A68206800F0A0FD2068806840F48040EC
:1019B0002168886027E0EA686968206800F0A8FD6F
:1019C0005021206800F09BFD1DE0EA6869682068EE
:1019D00000F0B1FD6021206800F091FD13E0EA689D
:1019E0006968206800F094FD4021206800F087FDC0
:1019F00009E000BF00BF00BF2968206800F07FFD3C
:101A000001E0012700BF00BF012084F83D0000BFB6
:101A1000002084F83C0000BF384684E7704770B56A
:101A200004462068C5682068066906F0020002289E
:101A300019D105F00200022815D1401F2168086164
:101A4000012020772068806900F0030018B120464B
:101A5000FFF7E4FF05E0204600F097F8204600F08D
:101A600095F80020207706F00400042819D105F02D
:101A70000400042815D1C0432168086102202077A2
:101A80002068806900F4407018B12046FFF7C6FF57
:101A900005E0204600F079F8204600F077F80020B5
:101AA000207706F00800082819D105F0080008285A
:101AB00015D1C04321680861042020772068C069DF
:101AC00000F0030018B12046FFF7A8FF05E020460C
:101AD00000F05BF8204600F059F80020207706F06F
:101AE0001000102819D105F01000102815D1C0439E
:101AF00021680861082020772068C06900F44070E0
:101B000018B12046FFF78AFF05E0204600F03DF8B7
:101B1000204600F03BF80020207706F0010048B195
:101B200005F0010030B16FF0010021680861204626
:101B300000F02EF806F08000802809D105F0800022
:101B4000802805D1C043216808612046FFF714FEB4
:101B500006F04000402809D105F04000402805D19A
:101B6000C04321680861204600F024F806F02000F8
:101B7000202809D105F02000202805D1C043216884
:101B800008612046FFF7F9FD70BD704770470000FF
:101B900010B50649884208D10549D1E90041631CC6
:101BA00041F10001024AC2E9003110BD940E00204B
:101BB000A81C002070477047704700002DE9F84FBF
:101BC0000446206805682068C668206847694FF0A9
:101BD0000009CA4605F00F09B9F1000F0AD105F056
:101BE000200038B106F0200020B1204600F007FDAB
:101BF000BDE8F88FB9F1000F7BD007F0010018B9EC
:101C000006F49070002874D005F0010030B106F49D
:101C1000807018B1606C40F00100606405F0040051
:101C200030B107F0010018B1606C40F00200606450
:101C300005F0020030B107F0010018B1606C40F00F
:101C40000400606405F0080048B106F0200010B9F7
:101C500007F0010018B1606C40F008006064606C2F
:101C6000002845D005F0200028B106F0200010B172
:101C7000204600F0C4FC20684069C0F3801A606C04
:101C800000F0080010B9BAF1000F2CD0204600F087
:101C900070FC2068406900F0400000B300BF00BF46
:101CA0002168143151E8001F21F0400021681431EF
:101CB00041E80002002AF3D100BFE06B50B1774841
:101CC000E16B4863E06BFEF7D9FE88B1E06B416BD6
:101CD00088470DE02046FFF76FFF09E009E0204646
:101CE000FFF76AFF04E02046FFF766FF002060640C
:101CF0007EE7206B012877D105F01000002873D013
:101D000006F010000028FAD000BF002000902068E4
:101D10000068009020684068009000BF00BF206805
:101D2000406900F0400000285FD0E06B0068406828
:101D30001FFA80F8B8F1000F55D0A08D404552DD54
:101D4000A4F82E80E06B8069202843D000BF00BF3C
:101D500021680C3151E8001F21F4807021680C319A
:101D600041E80002002AF3D100BF00BF00BF216894
:101D7000143151E8001F21F001002168143141E8BD
:101D80000002002AF3D100BF00BF00BF2168143158
:101D900051E8001F21F040002168143141E80002A1
:101DA000002AF3D100BF202084F8420000202063E5
:101DB00000BF00BF21680C3151E8001F21F0100066
:101DC00021680C3141E80002002AF3D100BFE06B2A
:101DD000FEF728FE02206063A08DE28D801A81B29A
:101DE0002046FFF7E8FE03E742E0A08DE18D401AB0
:101DF0001FFA80F8E08DD0B3B8F1000F37D000BFE4
:101E000000BF21680C3151E8001F21F49070216857
:101E10000C3141E80002002AF3D100BF00BF00BF2F
:101E20002168143151E8001F21F0010021681431AC
:101E300041E80002002AF3D100BF202084F84200CC
:101E40000020206300BF00BF21680C3151E8001F53
:101E500021F0100021680C3141E80002002AF3D182
:101E600000BF0220606341462046FFF7A4FEBFE6A4
:101E700005F0800030B106F0800018B1204600F077
:101E8000BBFCB5E605F0400030B106F0400018B1EB
:101E9000204600F0A4FBABE600BFA9E65F250008E2
:101EA00010B504460CB9012010BDA06900B100E0D6
:101EB00000BF94F8410028B9002084F84000204673
:101EC00000F02AF8242084F841002068C06820F43B
:101ED00000502168C860204600F010FC20680069AE
:101EE00020F49040216808612068406920F02A00B1
:101EF000216848612068C06840F400502168C860CB
:101F000000206064202084F8410084F84200002012
:101F1000606300BFC8E7000010B586B0044600202B
:101F200002900390049005901A49206888422ED1AF
:101F300000BF1948806940F480401749886108460D
:101F4000806900F48040019000BF00BF00BF0846D8
:101F5000806940F0040088610846806900F0040050
:101F6000019000BF00BF481502900220039003209B
:101F7000059002A90948FEF713FE4FF48060029015
:101F800000200390049002A90448FEF709FE06B061
:101F900010BD000000380140001002400008014060
:101FA00070472DE9F84F04460E46174699464FF004
:101FB000000A94F84100202850D106B117B9012039
:101FC000BDE8F88F00206064212084F84100FEF70E
:101FD00085FF8246A784E784A068B0F5805F04D1BE
:101FE000206910B90025B04602E035464FF00008E0
:101FF0001EE05346002280212046CDF8009000F0DC
:102000002BFC20B1202084F841000320D8E745B9FB
:10201000B8F80000C0F308002168486008F1020821
:1020200003E02878216848606D1CE08C401EE08445
:10203000E08C0028DDD15346002240212046CDF817
:10204000009000F009FC20B1202084F8410003201A
:10205000B6E7202084F841000020B1E70220AFE776
:10206000704700BFFEE7000000B5A3B01C221E4968
:102070001CA8FEF7E6F800211CA801F02BF91B496B
:1020800008601C2218491C3115A8FEF7DAF8002157
:1020900015A801F01FF9164908601C2212493831B1
:1020A0000EA8FEF7CEF800210EA801F013F9114991
:1020B00008601C220C49543107A8FEF7C2F8002121
:1020C00007A801F007F90C4908601C220649703185
:1020D0006846FEF7B6F80021684601F0FBF80749AC
:1020E000086023B000BD000070460008000000201A
:1020F00004000020080000200C0000201000002038
:1021000000B585B00020019002900390049000BFBC
:102110002D48806940F020002B498861084680697D
:1021200000F02000009000BF00BF00BF084680699B
:1021300040F0040088610846806900F004000090C7
:1021400000BF00BF00BF0846806940F008008861FA
:102150000846806900F00800009000BF00BF002220
:102160004FF470611948FEF7B3FE03200190002080
:1021700002900120039001A91548FEF711FD0320EC
:102180000190144802900120039001A90F48FEF726
:1021900007FD4FF44060019001200290039002205F
:1021A000049001A90948FEF7FBFC4FF44070019030
:1021B00001200290002003900220049001A903480E
:1021C000FEF7EEFC05B000BD00100240000C01401F
:1021D000000801400000111010B500220521252043
:1021E000FEF708FF2520FEF7F5FE00220521192045
:1021F000FEF700FF1920FEF7EDFE00220521072063
:10220000FEF7F8FE0720FEF7E5FE00220521062076
:10221000FEF7F0FE0620FEF7DDFE10BD00B587B02C
:1022200000200390049005900690019002901648BB
:10223000164908604FF4FA50486000211348816045
:102240004FF47A71C1600021016141618021816197
:10225000FFF7D6FA08B1FEF7E2FB4FF48050039087
:1022600003A90A48FFF754FB08B1FEF7D8FB00208A
:102270000190029001A90548FFF780FA08B1FEF726
:10228000CEFB07B000BD0000002C0140940E0020E2
:1022900010B50B480B4908604FF4E130486000214D
:1022A00008488160C16001610C21416100218161A8
:1022B000C161FFF7F5FD08B1FEF7B1FB10BD0000ED
:1022C00000380140DC0E002000BFFEE700BFFEE743
:1022D00008B508490968C9084FF47A72B1FBF2F1F0
:1022E0004143009100BF00BF00994A1E009200299F
:1022F000F9D108BD2000002010B502210448FEF7E6
:10230000DFFD0446012C00D110BD0020FCE70000D9
:102310000008014010B501210448FEF7D1FD044634
:10232000012C00D110BD0020FCE700000008014096
:10233000FEF764FA00BFFEF759FB142000F0B9FF66
:10234000F9E700BF012000F0B4FFFBE71CB500BFB8
:10235000094803C8CDE900010848B0F90830B0F9D0
:102360000A20B0F90C1006A000F0C6FA4FF47A70FB
:1023700000F09FFFECE70000C81C0020A81C002014
:1023800074696D653D2564683A25646D3A2564730A
:102390002C636F75746E65723D25640000BF4FF449
:1023A0007A7000F086FFFAE701F068FB00BF01F0E9
:1023B00087FBC82000F07DFFF9E770B50346A2B1A6
:1023C00018460C4600BF14F8016B00F8016B3EB9CB
:1023D00002E0002500F8015B551E2A1EF9D102E03B
:1023E000551E2A1EEFD100BF00BF184670BD10B5A4
:1023F000FEF77AFD02F006F8012801D001F058FF3F
:1024000010BD00B58FB0282105A8FDF733FF1421BA
:102410006846FDF72FFF022005900120099010204B
:102420000A9000200C9005A8FEF75AFF08B1FEF7AD
:10243000F6FA0F2000900020019002900390049083
:1024400000216846FEF728FE08B1FEF7E8FA0FB053
:1024500000BD704710B50248FFF7E1FA10BD00005B
:10246000940E002010B502681C4B984208D0B0F1C1
:10247000804F05D01A4B984202D01A4B984203D194
:1024800022F070024B681A43144B984208D0B0F106
:10249000804F05D0124B984202D0124B984203D184
:1024A00022F44072CB681A4322F080034C6943EA5D
:1024B000040202608B68C3620B688362074B984218
:1024C00001D10B69036301234361036903F0010335
:1024D0001BB1036923F00103036110BD002C01400F
:1024E000000400400008004030B50C46816821F42B
:1024F0007F4142EA032525432943816030BD0A46D6
:10250000816821F0700142F0070319438160704730
:1025100030B50B461446026A056A25F001050562CE
:10252000816921F0F00141EA041122F00A021A4304
:102530008161026230BD30B50B461446026A056AFD
:1025400025F010050562816921F4704141EA0431EA
:1025500022F0A00242EA03128161026230BD70B52E
:1025600005466C6A0020E085E0842046FFF724FBE6
:1025700070BD00BF00BF02680C3252E8002F22F489
:10258000907102680C3242E80013002BF3D100BFB7
:1025900000BF00BF0268143252E8002F22F0010190
:1025A0000268143242E80013002BF3D100BF016B24
:1025B00001290ED100BF00BF02680C3252E8002F83
:1025C00022F0100102680C3242E80013002BF3D114
:1025D00000BF202180F8421000210163704710B530
:1025E00004462068C06820F040002168C8602020B0
:1025F00084F841002046FFF733FD002010BDF8B5F8
:10260000044694F84200222875D1A068B0F5805F96
:102610000CD1206950B90025A66A20684068C0F333
:1026200008003080A06A801CA06215E0A56A002620
:10263000A068B0F5805F03D0A06828B9206918B9F8
:1026400020684068287004E02068406800F07F003F
:102650002870A06A401CA062E08D401E80B2E08518
:10266000002846D12068C06820F020002168C8609A
:102670002068C06820F480702168C86020684069C4
:1026800020F0010021684861202084F842000020E9
:102690006063206B012826D10020206300BF00BFAB
:1026A00021680C3151E8001F21F0100021680C3125
:1026B00041E80002002AF3D100BF2068006800F062
:1026C000100010280AD100BF002000902068006888
:1026D000009020684068009000BF00BFA18D204698
:1026E000FFF769FA02E02046FFF75AFC0020F8BD28
:1026F00001E00020FBE70220F9E7000070B5044686
:102700002168096921F44051E2681143226811618E
:102710002269A1681143626941EA02052168C9681A
:1027200041F20C62914329432268D16021684969D2
:1027300021F44071A2691143226851612D4A216838
:10274000914202D1FEF784FD01E0FEF771FD00EB3E
:10275000C00101EB001162689200B1FBF2F100EBE5
:10276000C00202EB001263689B00B2FBF3F2642329
:10277000B2FBF3F202EBC20303EB0212A1EB820104
:10278000322202EB01116422B1FBF2F101F0F001FF
:1027900000EBC00202EB001263689B00B2FBF3F295
:1027A0006423B2FBF3F201EB021200EBC00101EB78
:1027B000001163689B00B1FBF3F100EBC00303EB76
:1027C00000136668B600B3FBF6F36426B3FBF6F3BA
:1027D00003EBC30606EB0313A1EB8301322303EBE8
:1027E00001116423B1FBF3F101F00F0111442268E0
:1027F000916070BD00380140014691F841002128E8
:1028000028D18868B0F5805F0BD1086948B90A6A99
:102810001088C0F308000B685860086A801C0862C2
:1028200005E00B6A581C086218780B685860C88C61
:10283000401E80B2C88458B90868C06820F0800083
:102840000B68D8600868C06840F040000B68D8602A
:10285000002070470220FCE72DE9F84304460D46AE
:1028600017469846089E31E0701C70B3FEF736FBA1
:10287000A0EB0800B04200D816B90320BDE8F883E9
:102880002068C06800F00400F8B1802D1ED0402DF3
:102890001CD020680068C0F3C000B0B100BF0020A9
:1028A000009020680068009020684068009000BF99
:1028B00000BF2046FFF75DFE0820606400BF0020D7
:1028C00084F8400000BF0120D8E7FFE720680068D7
:1028D0002840A84201D1012000E00020B842C3D026
:1028E0000020CBE710B50248FFF768F910BD0000E3
:1028F000DC0E002000BFFEE70FB4054B10B503A9A6
:10290000044A029800F010F910BC5DF814FB0000B6
:1029100045320008980000200FB47CB50C0009ADCA
:1029200001D0611E00E00021CDE90001064B6A469E
:102930002946089800F0F8F8002C02D0009A0021EF
:1029400011707CBC5DF814FB2F320008024800684F
:10295000C0F30220704700000CED00E010B5002825
:1029600004DB0A07130E054A135406E00A07140E87
:10297000034A00F00F031B1FD45410BD00E400E015
:1029800018ED00E002E008C8121F08C1002AFAD1C1
:1029900070477047002001E001C1121F002AFBD1DF
:1029A000704700002DE9FF5F82B00021DDE90430AF
:1029B000020DDDF840B0034318D044F61050A2F2E7
:1029C000FF3242431514119801281FD0A5EB0B00CC
:1029D000401C5FEA000A4FF000064E4FDFF83891C6
:1029E000B046504615D5CAF1000413E011980124F1
:1029F0004AA3012801D16FEA0B010298119AC0E99C
:102A00000031C0E9024206B0BDE8F09FCBF1000002
:102A1000DFE704460021404A491842EB0450CDE963
:102A2000001012E0E00707D032463B4640464946D8
:102A3000FDF719FD8046894632463B461046194649
:102A4000FDF711FD06460F466410002CEAD1DDE9C2
:102A50000401DDE90023BAF1000F06DAFDF703FDFA
:102A600042464B46FDF7FFFC05E0FDF76EFD424692
:102A70004B46FDF76AFD04460E460022284BFDF743
:102A8000EBFD03D84FF0FF30014607E00022254B55
:102A900020463146FDF740FCFDF7C6FD102409E055
:102AA000002C0ADB0A220023FDF705FC039B3032D1
:102AB0001A55641E50EA0102F2D1641C039AC4F153
:102AC00011031444119A012A03D0012208430DD1A5
:102AD0000AE0084304D000204FF0110B119072E778
:102AE000A3EB0B056D1E0DE05B4504DD4FF000020E
:102AF00005F1010504E003DA4FF00002A5F101053C
:102B0000002AECD002981199C0E90231C0E90045D1
:102B100079E70000000014400000F03F30000000A2
:102B20000000F0430000E03F2DE9FF4F95B09A46CA
:102B3000884606460025EEE1252877D10024274661
:102B4000F94A0121039400E0044316F8013F203BB9
:102B500001FA03F01042F7D130782A2811D06FF033
:102B60002F033078A0F13002092A16D8039A44F0D6
:102B7000020402EB820203EB42021044761C039033
:102B8000EFE758F8042B0392002A03DA504244F48A
:102B90000054039044F00204761C30782E2816D19D
:102BA00016F8010F44F004042A280DD06FF02F020C
:102BB0003078A0F13003092B09D807EB870302EB2B
:102BC0004303C718761CF3E758F8047B761C30786B
:102BD0006C280FD006DC4C2817D068280DD06A2846
:102BE00014D104E0742810D07A280FD10DE044F4F9
:102BF00000140AE044F4801401E044F440147278B4
:102C0000824202D104F58014761C761C3078662846
:102C10000BD013DC582877D009DC002875D0452864
:102C2000F6D04628F4D047281AD193E118E063285B
:102C300035D0642879D0652812D18BE1702873D003
:102C400008DC6728F1D069286FD06E280DD06F2876
:102C500006D1ACE073282CD0752874D0782853D0D6
:102C60005246179990476D1C54E1C4F30250022854
:102C700009D003280DD0D8F8001004280DD00D601D
:102C800008F1040846E1D8F80010EA17C1E900523B
:102C9000F6E7D8F800100D80F2E70D70F0E718F8AD
:102CA000041B8DF8001000208DF80100EB46012078
:102CB00003E058F804BB4FF0FF3061074FF000010C
:102CC00002D40DE009F101018946B9420FDA8145CC
:102CD000F8DB1BF809100029F4D108E009F1010123
:102CE00089468142FADB1BF809100029F6D10398C6
:102CF0005346A0EB090721463846179A00F080FAA0
:102D0000284400EB090507E044E008E10DE01BF86A
:102D1000010B524617999047B9F10109F7D2534672
:102D200021463846179AF2E039E00A21C4F30252EC
:102D30004FF0000B0091022A06D058F8040BC1177F
:102D4000032A09D00AE023E008F1070020F0070277
:102D5000F2E80201904605E000B2C117042A01D151
:102D600040B2C117002906DA0A460021404261EB51
:102D700002012D2202E0220504D52B228DF8042029
:102D8000012203E0E20701D02022F7E7914657E055
:102D90000A2100E010214FF0000B00910BE0102100
:102DA0004FF0000B44F004040827009103E00820D2
:102DB0004FF0000B0090C4F30252022A05D058F8DD
:102DC000040B0021032A08D008E008F1070020F0D6
:102DD0000702F2E80201904603E080B2042A00D123
:102DE000C0B24FF0000922072AD53278702A07D0E6
:102DF000DDF800C08CF0100C5CEA0B0C05D00EE086
:102E000040228DF80420012208E050EA010306D098
:102E100030238DF804308DF8052002229146009B66
:102E200083F0080353EA0B030AD150EA010201D1EF
:102E3000620705D530228DF804204FF001097F1E6E
:102E40003278582A04D039A20C920CAA02920BE0D4
:102E50003BA2F9E75B46009AFDF72DFA0C9B9B5CC1
:102E6000029A521E0292137050EA0102F2D10298A5
:102E700004A9081A00F1200B600702D524F480345D
:102E800000E001275F4502DDA7EB0B0000E000201A
:102E900000EB0B01009003984944401A0390E003B3
:102EA00006D453462146179A039800F0A9F9054421
:102EB000002706E001A85246C05D179990476D1C97
:102EC0007F1C4F45F6DBE0030CD553462146179A8D
:102ED000039800F095F9054404E030205246179914
:102EE00090476D1C0099481E00900029F5DC08E011
:102EF0000298029952460078491C0291179990470E
:102F00006D1CBBF10001ABF1010BF1DC5BE100F0EA
:102F100065F90544761C307800287FF40DAE19B0B1
:102F20002846BDE8F08F0000092801003031323317
:102F300034353637383961626364656600000000F5
:102F400030313233343536373839414243444546DF
:102F500000000000600700D4062708F1070020F0F9
:102F60000700F0E80223804603F0004C5FEA0C0003
:102F700001D097A009E0200501D596A005E0E00763
:102F800001D095A001E0AFF24C001390307823F00F
:102F9000004365280CD006DC452809D046281DD002
:102FA00047287FD13BE0662818D067287AD136E0E1
:102FB0000021112F01DB112000E0781CCDE9000178
:102FC00004A90CA8FFF7EEFCDDE90D010C9A4FF007
:102FD000000B07F10109109200914EE04FF0004004
:102FE0000097CDE9011004A90CA8FFF7DBFCDDE98F
:102FF0000D020C9B0F994FF0000B9146109300921D
:1030000011B9791C00EB0109B7EB090003D4C0F139
:10301000FF3B07F10109A9EB0700019042E0012FF6
:1030200000DA01270021112F01DD112000E03846D0
:10303000CDE9000104A90CA8FFF7B4FCDDE90D01FE
:103040000C9A00914FF0000BB946109221070FD453
:10305000009A4A4503DA914601E0A9F10109B9F164
:10306000010F05DD109AA9F10101515C3029F4D05E
:10307000B84202DA10F1040F03DA0121CDE90110A0
:1030800010E0002803DC8344A9EB000102E0411CAE
:10309000494500DD8946A0EB0B00401C01904FF034
:1030A00000400290200705D40198484502DB4FF00C
:1030B000FF30019000208DF84B0002980DF14B0776
:1030C000B0F1004F25D002200C902B200D900298DB
:1030D00000280CDA404202902D200D9007E00A21D2
:1030E0000298FDF7D2F83031029007F8011D0C99D3
:1030F000481E0C900029F2DC02980028EFD1791EBE
:103100000D980870307800F0200040F0450007F876
:10311000020D11A8C01BC01D02901398007800B1C9
:10312000012000EB0901019801EBE07102980144D4
:103130000398401A401E0390E00306D453462146EC
:10314000179A039800F05CF805441398007818B1BA
:103150005246179990476D1CE00323D553462146EC
:10316000179A039800F04CF805441BE0BBF1000FE0
:1031700007DB0098584504DD1098179910F80B00EC
:1031800001E0179930205246904701980BF1010B4E
:10319000401E05F10105019004D12E2052461799D9
:1031A00090476D1CB9F10001A9F10109DEDC05E0D1
:1031B00017F8010B5246179990476D1C0299481E4B
:1031C00002900029F4DC53462146179A03989EE6A4
:1031D0002D0000002B000000200000002DE9F04130
:1031E000044600251E461746880404D405E03946E7
:1031F0002020B0476D1C641EF9D52846BDE8F0813B
:103200002DE9F041044600251E469046C80301D52D
:10321000302700E02027880404D505E041463846E1
:10322000B0476D1C641EF9D52846BDE8F0814A6898
:10323000002A06D00A68531C0B6010704868401EB4
:103240004860704713B50C464FF6FF73012269467C
:103250000248FEF7A6FE00981CBD0000DC0E002010
:10326000FDF74EFEFFF7CDF8FEF74AFFFFF710F827
:10327000FEF7D4FFFEF7B0FF0548FEF70DFB05A0F3
:10328000FFF73AFBFEF7F0FE00F01FF800BFFEE785
:10329000940E00207461736B2073746172742E2E0F
:1032A0002E0A000001460020842901D0CA1C1044C7
:1032B000704770B5044625460DB1294600E001214E
:1032C000084600F0A5FE002070BD10B500F0CEFE4F
:1032D000002010BD7FB504460D46606998B1A06915
:1032E00088B1B4F90800FFF7DDFF0646D4E9051000
:1032F000CDE9006102902B462269D4E9001001F06B
:1033000023F8039013E0B4F90800FFF7CBFF06465B
:1033100003A8CDE90060238A9AB22B46D4E90010B5
:1033200000F0E0FF012802D0002004B070BD039837
:10333000FBE7000005480089012803D1002003496C
:10334000088102E00120014908817047C81C002063
:103350002DE9F04105460E461C4807681C480068E8
:10336000001D00F050FD50B91948006890F82C106D
:103370000120884017490968814316480160681C8C
:1033800038B936B112480168091D134800F086FDAE
:103390001AE07C190E4800684460BC4207D20C4811
:1033A0000168091D0D48006800F05EFD0CE008484A
:1033B0000168091D0A48006800F056FD09480068C8
:1033C000844201D207480460BDE8F0813800002043
:1033D000240000203C000020001000202C000020D1
:1033E000280000205400002010B5044600F062FDC3
:1033F00023480068401C224908602248006840B900
:10340000204804600846006801280DD100F03EF90C
:103410000AE01D48006838B91A480068C06AE16AC5
:10342000884201D81748046018480068401C1749B2
:10343000086094F82C100120884015490968084359
:1034400013490860E16A01EB8101124A02EB810035
:10345000211D00F023FD00F057FD0B48006868B106
:1034600008480068C06AE16A884207D24FF080507D
:1034700009490860BFF34F8FBFF36F8F10BD000085
:1034800034000020240000204000002050000020D4
:103490003C000020240F002004ED00E010B516E0F1
:1034A00000F008FD0C48C068C468201D00F0ABFCAB
:1034B0000A480068401E0949086009480068401E23
:1034C0000749086000F020FD204600F00BF8044892
:1034D00000680028E4D110BDEC0F0020340000206B
:1034E0003000002010B5044694F8510030B9206B2C
:1034F00000F028FD204600F025FD1AE094F8510068
:10350000012803D1204600F01DFD12E094F851007F
:10351000022801D1012000E0002050B900BF502056
:1035200080F31188BFF34F8FBFF36F8F00BF00BFD1
:10353000FEE710BD30B54FF44063174800F00704B4
:103540002CB1C01D20F00700134C041B1B1B0246AE
:10355000124C22600024114D6C60D018083820F005
:1035600007000F4C206000240D4D2D686C600C4D41
:103570002D682C601146441A4C60094C24680C607C
:10358000084D4C682C60084D4C682C604FF000448E
:10359000064D2C6030BD000014100020600000209B
:1035A00068000020700000206C0000207C000020DB
:1035B00000BFFFF773FF064800680128F9D94FF0F4
:1035C000805004490860BFF34F8FBFF36F8FF0E75F
:1035D000240F002004ED00E02DE9FF5F81460E4638
:1035E0009246DDE90E7B109CAAF10100216B01EBF4
:1035F000800828F0070808F0070008B9012000E05B
:10360000002050B900BF502080F31188BFF34F8FC6
:10361000BFF36F8F00BF00BFFEE786B1002507E054
:10362000715D04F134004155705D00B902E06D1C1C
:10363000102DF5D300BF00214320015502E00020EA
:1036400084F83400072F00D30627E7626764002060
:10365000A064201D00F005FC04F1180000F001FC3E
:103660002461C7F10700A06164620020E06484F86F
:10367000500049464046039A00F050F92060BBF1E3
:10368000000F01D0CBF80040BDE8FF9F10B500242B
:1036900007E004EB84010F4A02EB810000F0D4FB49
:1036A000641C072CF5D30C4800F0CEFB0B4800F04F
:1036B000CBFB0B4800F0C8FB0A4800F0C5FB0A48EA
:1036C00000F0C2FB04480949086004480849086042
:1036D00010BD0000240F0020B00F0020C40F0020F8
:1036E000D80F0020EC0F0020001000202800002040
:1036F0002C00002010B50146164800E00068036861
:103700008B42FBD30246436813448B4204D1436887
:103710004C682344436001460A464B6813440468DE
:10372000A34211D10C4C03682468A34208D04B6813
:103730000468646823444B6003681B680B6005E001
:10374000054B1B680B6001E003680B60884200D0EA
:10375000016010BD60000020680000200A4909686F
:10376000096809B9012100E0002121B14FF0FF31C2
:10377000064A116006E004490968C968C868034A36
:1037800041681160704700002800002054000020AC
:103790000E480068401C08B9012000E0002050B924
:1037A00000BF502080F31188BFF34F8FBFF36F8F9E
:1037B00000BF00BFFEE700BF502080F31188BFF3B9
:1037C0004F8FBFF36F8F00BF00BFFEE78000002068
:1037D0002DE9F04104464FF0000800F09FFC4948F5
:1037E000006808B9FFF7A6FE474800682040002897
:1037F00070D1D4B1083404F00700B0B104F0070070
:10380000C0F10800044404F0070008B9012000E0FA
:10381000002050B900BF502080F31188BFF34F8FB4
:10382000BFF36F8F00BF00BFFEE7002C52D03748B8
:10383000006884424ED8364E3046056801E02E4678
:103840002D686868A04202D228680028F7D12D4868
:10385000006885423ED0306800F108082868306072
:103860006868001B102819D92F1907F0070008B93C
:10387000012000E0002050B900BF502080F31188E3
:10388000BFF34F8FBFF36F8F00BF00BFFEE76868C5
:10389000001B78606C603846FFF72CFF1B49686896
:1038A0000968081A19490860084600681949096832
:1038B000884203D2154800681649086012496868B2
:1038C0000968084368600020286013480068401CAD
:1038D0001149086000F04AFE08F0070008B901200D
:1038E00000E0002050B900BF502080F31188BFF3E2
:1038F0004F8FBFF36F8F00BF00BFFEE74046BDE8AC
:10390000F0810000680000207C0000206C00002096
:10391000600000207000002074000020001F4FF0A5
:1039200080730360001F21F001030360001F034B3D
:103930000360143802602038704700009137000897
:103940000021024A1160516070470000C81C00202D
:1039500070B505460C46284600F05EF804F00700F6
:1039600040F008006870284600F05CF970BD05E082
:10397000411EC8B200BF00BF00BF00BF0028F7DC77
:103980007047000070B505460C4634B1002306228E
:103990000549284600F023FA05E0002306220349E2
:1039A000284600F01CFA70BD304700083647000872
:1039B0002DE9FF4104460D4617461E46DDF82880D6
:1039C000002020606060A060E06007212046FFF7D3
:1039D000BFFF204600F020F86560A781A660A4F82C
:1039E0000E80002000900190029003901120019021
:1039F0000020029003200390009769462846FDF7B7
:103A0000CFF8CDF8008069463046FDF7C9F820466A
:103A100000F008F9BDE8FF8110B5044602E001207E
:103A2000FDF784F820780128F9D00120207010BD1E
:103A300010B50446E1890022A068FDF749FA142078
:103A4000FFF795FF10BD10B50446E1890022A0687C
:103A5000FDF73EFA1420FFF78AFFA1890122606872
:103A6000FDF736FA1420FFF782FFE1890122A068F2
:103A7000FDF72EFA1420FFF77AFF10BD08B54FF4BA
:103A800000600C4B4210194600900B48FFF790FF66
:103A90004FF40070074B4210194600900748FFF79B
:103AA00087FF01210448FFF76DFF01210348FFF75D
:103AB00069FF08BD000C0140881C0020981C0020F4
:103AC0002DE9F04751483C220023D0E9004120462F
:103AD000FCF776FB10B24D49088108463C220023D2
:103AE000D0E900613046FCF76BFB04463C22002322
:103AF000FCF766FB10B24549488108463C2200238A
:103B0000D0E900613046FCF75BFB04463C22002311
:103B1000FCF756FB80463C220023FCF751FB10B219
:103B20003A4988810846B0F908000A2190FBF1F271
:103B300001FB12003549C8810846B0F90E0034492E
:103B4000085C344908703148B0F908000A2190FB3C
:103B5000F1F000B22D4908820846B0F910002C4956
:103B6000085C2C4948702948B0F90A000A2190FBEA
:103B7000F1F201FB1200254948820846B0F9120013
:103B80002349085C40F08000224988701F48B0F942
:103B90000A000A2190FBF1F000B21C498882084615
:103BA000B0F914001A49085C1A49C8701748B0F9EE
:103BB0000C000A2190FBF1F201FB12001349C882AC
:103BC0000846B0F916001249085C40F0800011491F
:103BD00008710E48B0F90C000A2190FBF1F000B218
:103BE0000A4908830846B0F918000949085C0949E0
:103BF000487100230622084800F0F1F80748002227
:103C00000168074800F06CF8BDE8F087A81C0020A8
:103C10002647000890000020881C0020C81C0020B7
:103C2000981C00200021017070472DE9F0410446E6
:103C30000D46002723E0A18900226068FDF748F9BE
:103C40001420FFF794FE05F0010028B1E18901225C
:103C5000A068FDF73DF904E0E1890022A068FDF7C6
:103C600037F91420FFF783FEA18901226068FDF770
:103C70002FF91420FFF77BFE6D10781CC7B2082FB8
:103C8000D9DBA18900226068FDF722F9E1890122D0
:103C9000A068FDF71DF91420FFF769FEA189012234
:103CA0006068FDF715F91420FFF761FEE189A0684F
:103CB000FDF706F9064626B9E1890022A068FDF75E
:103CC00007F91420FFF753FEA18900226068FDF771
:103CD000FFF81420FFF74BFE3046BDE8F0810000EE
:103CE0007FB506460C4615463046FFF795FE002088
:103CF00000900190234619A2072102A8FEF70CFEAE
:103D000000201DE002A9095C2D2903D140210DF8F6
:103D1000001013E002A9095C30290BDB02A9095C41
:103D2000392907DC02A9095C30390D4A515C0DF8CC
:103D3000001003E000210DF8001003E0411CC8B2A0
:103D40000628DFDB00BF2B4606226946304600F01E
:103D500009F83046FFF766FF7FBD000025640000CC
:103D6000264700082DE9F0410746884614461D46BF
:103D7000052D01DDBDE8F081062C00DD0624384666
:103D8000FFF756FE40213846FFF74FFF3846FFF752
:103D90005AFE3846FFF74CFE05F00300C030C1B2B2
:103DA0003846FFF742FF002606E018F806103846AE
:103DB000FFF73BFF701CC6B2A642F6DB3846FFF7A2
:103DC00042FE3846FFF734FE78788030C1B238467C
:103DD000FFF72BFF3846FFF736FE00BFCAE72DE995
:103DE000F04104460D4616461F462046FFF714FED6
:103DF0003B46324629462046FFF7B4FF2046FFF7F0
:103E000011FFBDE8F08101460A69D1E901309860EF
:103E1000D1E9010358605068884201D18868506038
:103E2000002008611068401E106010687047000094
:103E3000034B0360034B0B6080231360704700004B
:103E4000400C0020940C002000F1080141604FF06C
:103E5000FF31816000F10801C16001610021016052
:103E6000704700210161704710B502460B685C1C69
:103E70000CB9106907E002F1080000E040684468EE
:103E800024689C42FAD944684C604C68A160886000
:103E900041600A611468641C146010BD42684A6085
:103EA00093688B60936859609160086103685B1C3C
:103EB0000360704700BF502080F31188BFF34F8F1D
:103EC000BFF36F8F00BF0E480068401C0C490860AC
:103ED00008460068012812D10A480068C0B208B933
:103EE000012000E0002050B900BF502080F311886D
:103EF000BFF34F8FBFF36F8F00BF00BFFEE7704768
:103F00008000002004ED00E00D48006850B900BFBB
:103F1000502080F31188BFF34F8FBFF36F8F00BF26
:103F200000BFFEE706480068401E054908600846D5
:103F3000006820B9002080F3118800BF00BF7047DF
:103F40008000002070B506463546002E44D0083D5E
:103F50002C46224960680968084008B1012000E049
:103F6000002050B900BF502080F31188BFF34F8F5D
:103F7000BFF36F8F00BF00BFFEE7206808B90120C4
:103F800000E0002050B900BF502080F31188BFF33B
:103F90004F8FBFF36F8F00BF00BFFEE70F49606810
:103FA00009680840C0B12068B0B90C496068096868
:103FB0008843606000F0B2F8094960680968084405
:103FC000074908602046FFF795FB06480068401C3B
:103FD0000449086000F0CAFA70BD00007C000020AF
:103FE0006C0000207800002000204FF0E0210861E4
:103FF0008861064800684FF47A71B0FBF1F0401E0A
:104000004FF0E02148610720086170472000002040
:1040100070B504460025D4B11248006808B90120E3
:1040200000E0002050B900BF502080F31188BFF39A
:104030004F8FBFF36F8F00BF00BFFEE700F06EF839
:1040400000212046FFF784F900F090FA05463DB9BB
:104050004FF0805004490860BFF34F8FBFF36F8F5C
:1040600070BD00005C00002004ED00E010B586B0DB
:1040700000200590049003AA04A905A8FFF7D8FE24
:104080000022DDE904101346CDE9002102901CA1B5
:104090001D48039A00F058F91C490860084600685A
:1040A00008B1012400E00024012C15D100BF5020EC
:1040B00080F31188BFF34F8FBFF36F8F00BF4FF0B6
:1040C000FF3013490860012012490860002012499E
:1040D000086000F071F810E0601C08B1012000E0F9
:1040E000002050B900BF502080F31188BFF34F8FDC
:1040F000BFF36F8F00BF00BFFEE706B010BD00002A
:1041000049444C4500000000B1350008580000202B
:1041100054000020400000203800002002480068C1
:10412000401C0149086070475C0000201D48006881
:1041300018B101201C49086032E000201A490860CB
:104140001A480068B0FA80F0C0F11F0101EB81004D
:10415000174A52F8200008B1012000E0002050B9B1
:1041600000BF502080F31188BFF34F8FBFF36F8FD4
:1041700000BF00BFFEE701EB81020D4B03EB8200A5
:1041800042685268426000F108024368934202D1DB
:104190004268526842604268D268064B1A6000BFAB
:1041A000704700005C000020480000203C00002018
:1041B000240F0020240000201CB538490846007850
:1041C0000190FF200A4610700846007800909DF884
:1041D000000000F0F0009DF80020904201D1012085
:1041E00000E0002050B900BF502080F31188BFF3D9
:1041F0004F8FBFF36F8F00BF00BFFEE79DF8000039
:1042000000F05000264A10700720264A106009E08E
:1042100024480068401E234A10609DF800004006B4
:10422000000E00909DF8000000F080008028EFD084
:104230001C480068C0F10700042801D1012000E0FB
:10424000002050B900BF502080F31188BFF34F8F7A
:10425000BFF36F8F00BF00BFFEE712480068000287
:10426000104A10601046008800F4E06010600B4AAD
:10427000019810700C48006840F470000A4908600A
:104280000846006840F070400860FFF7ADFE00206F
:1042900006490860FBF748FF00201CBD00E400E071
:1042A000840000208800002020ED00E08000002035
:1042B00010B500BF502080F31188BFF34F8FBFF3BC
:1042C0006F8F00BF00F0AEF818B14FF08050044976
:1042D000086000BF002080F3118800BF10BD0000FF
:1042E00004ED00E02DE9FF4F85B080468946174672
:1042F000DDE912ABB800FFF76BFA064656B1542061
:10430000FFF766FA04460CB1266304E03046FFF777
:1043100019FE00E000248CB1002084F85100CDE9A2
:1043200000ABCDE902403A4649464046089BFFF7BC
:1043300053F92046FFF758F8012501E04FF0FF350B
:10434000284609B0BDE8F08F2DE9F04F85B007464B
:10435000884691469A46DDE90EB6109C0EB10120C2
:1043600000E0002050B900BF502080F31188BFF357
:104370004F8FBFF36F8F00BF00BFFEE70CB101206E
:1043800000E0002050B900BF502080F31188BFF337
:104390004F8FBFF36F8F00BF00BFFEE75420039025
:1043A0000398542801D1012000E0002050B900BF3B
:1043B000502080F31188BFF34F8FBFF36F8F00BF82
:1043C00000BFFEE700BFB4B1AEB125462C462E6358
:1043D000022085F85100002004A953464A46CDE941
:1043E00000B1CDE9025041463846FFF7F5F82846BE
:1043F000FEF7FAFF01E000200490049805B0BDE844
:10440000F08F00000549096809B9012005E0044959
:10441000096809B9022000E0002070474000002030
:104420005C0000202DE9F0414FF00008444800688E
:1044300000287CD143480068451C4248056015BBF4
:1044400041480068006808B9012000E0002050B928
:1044500000BF502080F31188BFF34F8FBFF36F8FE1
:1044600000BF00BFFEE73848076838480068364993
:1044700008603648076036480068401C34490860C8
:10448000FFF76CF900BF3348006885423CD300BF9A
:104490002D480068006808B9012000E0002020B124
:1044A0004FF0FF302B4908602DE027480068C068B6
:1044B000C4686668B54202D22648066023E0201D23
:1044C000FFF7A1FCA06A18B104F11800FFF79BFCEC
:1044D00094F82C10012088401F49096808431E49A0
:1044E0000860E16A01EB81011C4A02EB8100211D99
:1044F000FFF7D4FC1A49E06A0968C96A8842C7D341
:104500004FF00108C4E700BF15480068C06A00EB1F
:104510008000124951F82000012801D94FF001080C
:104520001048006808B14FF0010805E0FFE70E48A9
:104530000068401C0C4908604046BDE8F08100005E
:104540005C00002038000020280000202C00002003
:104550004C000020540000203C000020240F0020CC
:1045600024000020480000204400002070B50024F2
:1045700000263648006850B900BF502080F31188EB
:10458000BFF34F8FBFF36F8F00BF00BFFEE7FFF792
:1045900091FC2E480068401E2C49086008460068BF
:1045A00000284FD12A48006800284BD024E0294831
:1045B000C068C46804F11800FFF725FC201DFFF750
:1045C00022FC94F82C1001208840234909680843F4
:1045D00021490860E16A01EB8101204A02EB810078
:1045E000211DFFF75BFC1E49E06A0968C96A884221
:1045F00002D301201B4908601648006808B9012051
:1046000000E000200028D2D00CB1FFF7A7F8164830
:10461000056865B100BFFFF705FF10B10120114922
:1046200008606D1E002DF6D100200F4908600D486E
:10463000006838B1012630070C490860BFF34F8F7E
:10464000BFF36F8FFFF760FC304670BD5C00002049
:1046500034000020D80F00203C000020240F002050
:1046600024000020480000204400002004ED00E069
:10467000504700089D2300080000000000000000D3
:10468000800000009C0000209C0200207847000869
:10469000A9230008FDFF00000000000080000000CA
:1046A000F0020020F0040020684700084D230008B5
:1046B000FDFF000000000000800000004405002015
:1046C000440700205C47000831230008FDFF00007C
:1046D00000000000800000009807002098090020DA
:1046E0004447000843230008FDFF000000000000CD
:1046F00080000000EC090020EC0B00200203040500
:10470000060708090A0B0C0D0E0F1010010200001D
:104710000000000000000102030406070809000071
:104720000000010203043F065B4F666D7D077F6F4B
:10473000FFFFFFFFFFFF000000000000000000007F
:1047400040800000636D645F6C696E65000000006E
:1047500064656661756C745461736B006275747422
:104760006F6E5F7461736B00636F756E7465725FFB
:104770007461736B000000007365675F6469737038
:104780006C617900A4470008000000209C00000034
:1047900084290008404800089C0000203C200000BC
:1047A0009429000800000000000000000000000044
:1047B00000000000000000000000000010000000E9
:1047C0000100000000127A0000000000000000005C
:1047D00000000000000000000000000000000000D9
:1047E00000000000000000000000000000000000C9
:1047F00000000000000000000000000000000000B9
:1048000000000000000000000000000000000000A8
:104810000000000000000000000000000000000098
:1048200000000000AAAAAAAA0000000000000000E0
:10483000000000003F000000000000000000000039
:04000005080000ED02
:00000001FF
