:020000040800F2
:100000003023002029020008D31B0008011A000831
:10001000D11B00089D0700087D1F0008000000009C
:100020000000000000000000000000009101000836
:100030009909000800000000D50100083D1C0008D7
:10004000430200084302000843020008430200087C
:1000500043020008430200089B090008A1090008A8
:10006000430200084302000843020008430200085C
:10007000430200084302000843020008430200084C
:10008000430200084302000843020008430200083C
:10009000430200084302000843020008430200082C
:1000A00043020008A91C000843020008430200089C
:1000B000430200084302000843020008430200080C
:1000C00043020008430200084302000843020008FC
:1000D00043020008711F00084302000843020008A1
:1000E00043020008430200084302000800F002F83F
:1000F00000F03FF80AA090E8000C82448344AAF183
:100100000107DA4501D100F034F8AFF2090EBAE880
:100110000F0013F0010F18BFFB1A43F0010318473B
:10012000342E0000542E0000103A24BF78C878C145
:10013000FAD8520724BF30C830C144BF04680C60ED
:10014000704700000023002400250026103A28BF35
:1001500078C1FBD8520728BF30C148BF0B60704739
:10016000642900F0BF80002070471FB51FBD10B587
:1001700010BD00F0D1FA1146FFF7F7FF01F016FFAE
:1001800000F0EFFA03B4FFF7F2FF03BC00F0F2FA5D
:10019000224B19680868B0E8F00F80F30988BFF3B4
:1001A0006F8F4FF0000080F311884EF00D0E7047F6
:1001B0000000000006480068006880F3088862B606
:1001C00061B6BFF34F8FBFF36F8F00DF00BF00BF7B
:1001D00008ED00E0EFF30980BFF36F8F0F4B1A6853
:1001E00020E9F00F106008B54FF0500080F311883F
:1001F000BFF34F8FBFF36F8F02F060FC4FF0000032
:1002000080F31188BDE8084019680868B0E8F00F6D
:1002100080F30988BFF36F8F704700BF2400002070
:10022000EFF3058070470000094880470948004700
:10023000FEE7FEE7FEE7FEE7FEE7FEE7FEE7FEE796
:10024000FEE7FEE704480549054A064B70470000F3
:10025000A51C0008ED000008301D00203023002000
:10026000301F0020301F002010B54C1084EA5304CA
:1002700004D54042C1F1000138BF491E1B4204D5DC
:100280005242C3F1000338BF5B1E00F04AF914F07C
:10029000804F04D04042C1F1000138BF491E14F024
:1002A000004F04D05242C3F1000338BF5B1E10BDA3
:1002B0000FB41CB50C0007AA009001D02044401ECA
:1002C000074B7B4469460190069800F000FA002C29
:1002D00003D06946002000F00DFA1CBC5DF814FB49
:1002E000390400002DE9F041064600241068752904
:1002F000314616A510D0AFF30080002802DA404244
:1003000013A507E031688A0701D512A502E0490765
:1003100004D511A5012401E0AFF3008000210A22D9
:1003200006F1240709E0B0FBF2FCB0FBF2F302FB9C
:100330001C00303078541846491C0028F3D123465D
:100340002A463046BDE8F04100F062B900000000E6
:100350002D0000002B000000200000002DE9F047D8
:100360004FF0000A89460446C0F820A02046E16804
:100370008847002876D0252806D0D4E90121904767
:10038000206A401C2062F1E7E1682046002588478A
:10039000C4F81CA006460027C4F818A02A2E09D0CD
:1003A000304601F0FCFD38B304EB8708303EC8F856
:1003B000186019E059F8041B204604EB870291618C
:1003C000E1688847012F064618D1E069002820DA45
:1003D00025F020051DE0D8F8180000EB800006EBA2
:1003E00040003038C8F818002046E16888470646C3
:1003F00001F0D5FD0028EED1012F0AD02E2E08D114
:100400002046E16888477F1C0646022F45F02005FC
:10041000C4DBA069002803DA404245F00105A06171
:10042000E80701D025F01005B6B1A6F14100192862
:1004300002D8203645F400654A46314620462560FC
:100440004D46FFF78DFE58B1012806D0ED1D25F071
:10045000070000F1080989E704E005F1040985E7D0
:1004600030468AE7206ABDE8F08710B5203AC0F030
:100470000B80B1E81850203AA0E81850B1E81850A5
:10048000A0E81850BFF4F5AF5FEA027C24BFB1E8E2
:100490001850A0E8185044BF18C918C0BDE8104053
:1004A0005FEA827C24BF51F8043B40F8043B08BF5C
:1004B0007047D20728BF31F8023B48BF11F8012B23
:1004C00028BF20F8023B48BF00F8012B70474FF0CF
:1004D000000200B5134694469646203922BFA0E894
:1004E0000C50A0E80C50B1F12001BFF4F7AF0907A0
:1004F00028BFA0E80C5048BF0CC05DF804EB890091
:1005000028BF40F8042B08BF704748BF20F8022BD3
:1005100011F0804F18BF00F8012B704770477047EB
:10052000704753EA020C00F069802DE9F04B4FF060
:100530000006002B1FBFB3FA83F503FA05F424FA73
:1005400005F65E4012BF1643B2FA82F502FA05F4D0
:10055000C5F120051EBF22FA05FC44EA0C04203533
:1005600056EA044C4FEA144418BF641C4FF00008CC
:100570004FF00009904271EB030C39D3002919BFE9
:10058000B1FA81F701FA07F6B0FA80F700FA07F638
:10059000C7F120071EBF20FA07FC46EA0C062037E9
:1005A000B6FBF4FCA7EB0507103F07F01F0BCBF1E0
:1005B00020060CFA0BFB2CFA06F644BFB3460026C5
:1005C000202FA4BF5E464FF0000B5BEA060C08BF6D
:1005D0004FF0010B19EB0B09ABFB027C48EB060853
:1005E000C01B06FB02CC0BFB03CC71EB0C01C1E77B
:1005F0000B46024641464846BDE8F08B13B54FF026
:1006000000004FF00001AFF30080BDE81C407047D0
:100610002DE9F0470D4699469246044600F124081C
:100620000168880604D5E06921F01001216000E02E
:100630000120A84201DD471B00E00027A1697A19CB
:1006400002EB0900081AA0612078C00602D42046F7
:10065000AFF30080002608E0D4E901211AF8060073
:100660009047206A401C761C20624E45F4DB2078BF
:10067000C0060AD52046AFF3008006E0D4E9012188
:1006800030209047206A401C2062381EA7F10107E5
:10069000F4DC07E0D4E9012118F805009047206A4E
:1006A000401C2062281EA5F10105F3DC2046AFF3B3
:1006B00000802078000602D50220BDE8F0870120E6
:1006C000FBE7000001694A1C02610878704700B529
:1006D0008FB0CDE901310021059105497944CDE97B
:1006E000031011466846FFF739FE0FB000BD000049
:1006F000E5FFFFFF0A6802F8010B0A607047D1E9C5
:1007000000239A4202D2531C0B6010707047000005
:1007100000487047D01C00207546FFF7F9FFAE4631
:1007200005006946534620F00700854618B020B5FD
:10073000FFF788FDBDE820404FF000064FF00007AE
:100740004FF000084FF0000B21F00701AC46ACE879
:10075000C009ACE8C009ACE8C009ACE8C0098D46E6
:10076000704710B50446AFF300802046BDE8104046
:10077000FFF708BD01491820ABBEFEE726000200C6
:1007800070470000044B19680A4600E0496B0029D5
:10079000FCD14263186070478C000020FEE7002304
:1007A000002805D0082904D000EB8100C260012098
:1007B000704700EB83015B1CDBB2CA60082BF8D3E7
:1007C000F5E7000010B50C4A0C490DA000F026F822
:1007D0000D4A00210948FFF7E2FF08490B4A38316A
:1007E0000BA000F01BF805480021BDE810400A4AA4
:1007F0003830FFF7D4BF0000D51B0008101C0020C4
:1008000070617573650000004D200008ED1B000845
:100810007265736574000000A52400082DE9F0419D
:1008200016460C00054624D038212046FFF74FFE1F
:10083000201D05215FF0000715F8012B00F8012BA2
:10084000E2B1491EF8D10A206072E0722660A07AF7
:1008500020F00300401CA072B047A17A60F383012E
:10086000A17284F831702046FFF78CFF0120BDE8AB
:10087000F0810020FBE700BF00F8017B491EFBD19F
:10088000E1E770B5044600688047A17A0025C1F30E
:10089000810282421CD094F831305B1CDBB284F8B8
:1008A0003130012B14D960F38301A17284F83150E7
:1008B000607A0A2801D040B10EE0C1F3810001F056
:1008C0000301884208D1657206E00120607203E0EE
:1008D000824201D184F83150607A88B1012828D150
:1008E000E07A0A26E0B3062805D0042821D1216A3F
:1008F00009B12046884784F8335084F8305039E0F5
:10090000A07AC0F3810100F00300814211D194F874
:100910003300401CC1B2042084F83310642904D28F
:10092000E07A022816D0E57214E003D1E072E169A2
:1009300071B970BD0ED994F83010491CC9B284F851
:100940003010642906D384F83050E072E16909B1AF
:100950002046884794F83300FF28EAD1652000E05C
:1009600002E084F8330070BDE16809B12046884791
:1009700084F833506672E67270BD0000054810B509
:10098000046803E02046FFF77CFF646B002CF9D17C
:1009900010BD00008C0000207047012000F094B8CA
:1009A000022000F091B872B6FEE710B590F8211061
:1009B0000022022905D00421816380F82020012033
:1009C00010BD01680B6823F00E030B6001680B6813
:1009D00023F001030B6090F84030C46B012101FA51
:1009E00003F3636080F8211080F82020104610BDCA
:1009F00010B590F821100024022903D0042181634E
:100A000001243DE001680A6822F00E020A600168D4
:100A10000A6822F001020A601A4A0168914201D173
:100A2000012121E0174A1432914201D110211BE02B
:100A3000144A2832914201D1891515E0114A3C32FD
:100A4000914201D189140FE00E4A5032914202D1F5
:100A50004FF4803108E00B4A6432914202D14FF4E6
:100A6000801101E04FF08071064A083A516001217F
:100A700080F82110002180F82010416B01B18847D7
:100A8000204610BD0800024070B5044600F022F96F
:100A90000546601C02D004480078044400F01AF9AE
:100AA000401BA042FAD370BD14000020022807D1D9
:100AB0000448D0E90012491C42F10002C0E90012CA
:100AC00070470000A01C0020044910B50A680242CB
:100AD00002D00860FFF7EAFF10BD000014040140D7
:100AE0002DE9F84FDFF8B8910024A9F1040B234653
:100AF0000F2709F1040AABF1040EC9E00125A54056
:100B00002A40AA427DD1674ED1F804C0ACEB06085A
:100B1000B44532D014DCBCF1030F3AD009DCBCF18F
:100B2000000F2AD0BCF1010F1CD0BCF1020F31D153
:100B30001DE0BCF1110F17D0BCF1120F2AD119E042
:100B4000B8F5881F19D006DCB8F5803F15D0B8F588
:100B5000801F1FD111E0B8F5001F0ED0B8F5041F9B
:100B600018D10AE0CB6815E0CB681B1D12E0CB68FA
:100B700008330FE0CB680C330CE08B682BB1012BF2
:100B80004FF0080303D0456104E0042302E005614F
:100B900000E00023FF2A01D8064601E000F1040628
:100BA0004FEA840501D9A5F12005D6F8008007FA9F
:100BB00005FC28EA0C0803FA05F548EA0508C6F81A
:100BC00000804D68ED0062D5374DAE6946F00106F4
:100BD000AE61AD6924F0030605F001050095334DC3
:100BE00006EB050CDCF80850A607360F07FA06F8E6
:100BF00025EA0805DFF8B880404503D14FF000082A
:100C000017E044E0DFF8AC80404502D14FF0010826
:100C10000FE0DFF8A480404502D14FF0020808E061
:100C2000DFF89880404502D14FF0030801E04FF013
:100C3000040808FA06F848EA0508CCF808804D6868
:100C4000D9F80060ED024D4601D5164300E0964309
:100C50002E604D68DAF80060AD02554601D51643A6
:100C600000E096432E604D68DBF80060AD035D4602
:100C700001D5164300E096432E604D68DEF8006013
:100C8000ED03754601D5164300E096432E60641CC3
:100C90000D682A46E5407FF431AFBDE8F88F0000CB
:100CA0000804014000001110001002400000014043
:100CB00000080140000C01400010014000140140F8
:100CC0008068084000D0012070470AB10161704778
:100CD0000904FBE701488068704700001400002009
:100CE0000248816802781144816070471400002036
:100CF000074810B5016841F010010160032000F0C1
:100D00007BF80F2000F006F800F024F8002010BD5A
:100D10000020024070B50D4D04464FF47A712878DA
:100D2000B1FBF0F00A490968B1FBF0F000F0E2FA1B
:100D300048B9102C07D200222146501E00F03CF882
:100D400000206C6070BD012070BD00001400002008
:100D5000200000200F4808B5816941F00101816140
:100D6000816901F001010091C16941F08051C161C7
:100D7000C069002200F0805000900F21901E00F00A
:100D80001BF80548416821F0E06141F000714160C5
:100D900008BD00000010024000000140002809DBEF
:100DA00000F01F02012191404009800000F1E02085
:100DB000C0F8001170470000F0B40E4B1B680C46E1
:100DC000C3F30223C3F10705042D00D90425191D1F
:100DD000072901D2002300E0DB1E012606FA05F1F7
:100DE000491E214099409E40761E16403143F0BC7A
:100DF00001F0C5B80CED00E0064900F007020868F4
:100E00004FF6FF03184040EA0220034A10430860EF
:100E1000704700000CED00E00000FA052DE9F047F6
:100E20000F46050061D0434E306800F00700B8421D
:100E300009D2306820F0070038433060306800F095
:100E40000700B84251D128683B4C810712D54007B2
:100E500003D5606840F4E06060602878000703D53F
:100E6000606840F4605060606068A96820F0F0003D
:100E7000084360602878C00728D06868012810D02F
:100E80002168022810D0890700292EDA616821F034
:100E9000030101436160FFF71DFF804641F288397D
:100EA0000DE021688903EFE78901EDE7FFF712FF05
:100EB000A0EB0801494502D90320BDE8F08760682E
:100EC000696800F00C00B0EB810FEFD1306800F0E2
:100ED0000700B8420BD9306820F007003843306073
:100EE000306800F00700B84201D00120E5E728781B
:100EF000400705D56068E96820F4E0600843606059
:100F00002878000706D56068296920F4605040EA17
:100F1000C100606000F038F86168084AC1F303114D
:100F2000515CC8400649086006480068FFF7F2FEB9
:100F30000020C2E70020024000100240E62E000818
:100F40002000002018000020044805490068496876
:100F5000044AC1F30221515CC840704720000020C0
:100F600000100240F62E0008044805490068496850
:100F7000044AC1F3C221515CC840704720000020E0
:100F800000100240F62E00080E4A51680E4801F08B
:100F90000C03042B11D0082B0FD10C48C1F3834351
:100FA000C903C05C0AD55168084AC1F34041921E8A
:100FB000515C054A5043B0FBF1F070470449484387
:100FC000704700000010024000127A00D62E000880
:100FD00000093D002DE9F84F040070D02078C04D85
:100FE000C00749D06868C0F38100012807D068684D
:100FF000C0F38100022809D16868C00306D52868BB
:10100000800339D560680028E7D035E06068B0F526
:10101000803F0BD010B1B0F5A02F11D0286820F47C
:1010200080302860286820F4802002E0286840F49E
:1010300080302860606890B1FFF74CFE06460AE0F9
:10104000286840F480202860F0E700BFFFF742FEE8
:10105000801B642873D828688003F7D50CE0FFF75D
:1010600039FE064605E000BFFFF734FE801B64280A
:10107000F0D828688003F7D420789A4E80074FF084
:1010800001094FF0000839D5686810F00C0F07D03F
:101090006868C0F38100022809D16868C00306D4DB
:1010A0002868800714D52069012808D110E020693C
:1010B000B0B1C6F80090FFF70DFE074605E00AE163
:1010C000FFF708FEC01B0228C4D828688007F7D5A0
:1010D0002868616920F0F80040EAC10028600DE04E
:1010E000C6F80080FFF7F6FD074604E0FFF7F2FDC3
:1010F000C01B022823D828688007F7D4207800076F
:101100002CD57948A169D9B1C0F80090FFF7E2FD6C
:10111000074604E0FFF7DEFDC01B02280FD8686A0F
:101120008007F7D571484FF4FA510068B0FBF1F031
:10113000009000BF0098411E0091FAD20EE080E0BE
:10114000C0F80080FFF7C6FD074604E0FFF7C2FDC8
:10115000C01B022875D8686A8007F7D4207840073A
:1011600060D5E8690027C00008D4E86940F08050E5
:10117000E861E869012700F0805000905C48016850
:10118000C90513D40168834641F480710160FFF7FB
:10119000A1FD824606E000BFFFF79CFDA0EB0A0020
:1011A00064284ED8DBF80000C005F5D5E0680128BA
:1011B0000AD008B1052813D0286A20F0010028625F
:1011C000286A20F0040002E0286A40F0010028624A
:1011D000E06841F2883B98B1FFF77CFD82460BE066
:1011E000286A40F004002862EEE700BFFFF772FDB6
:1011F000A0EB0A0159455AD8286A8007F6D50CE0B9
:10120000FFF768FD824605E0FFF764FDA0EB0A01E9
:1012100059454CD8286A8007F6D41FB1E86920F0F8
:101220008050E861E06988B36968C1F381010229EF
:1012300044D00228C6F8608004D0FFF74BFD044676
:1012400038E034E0FFF746FD074604E0FFF742FDD3
:10125000C01B02282BD828688001F7D4206AB0F57B
:10126000803F05D16868A16820F4003008436860B9
:10127000D4E908010843696821F4741108436860DF
:10128000C6F86090FFF726FD044606E025E000BFA3
:10129000FFF720FD001B022809D828688001F7D538
:1012A0001BE000BFFFF716FD001B022802D9032038
:1012B000BDE8F88F28688001F4D40EE00128F7D04B
:1012C0006868226A00F48031914204D1616A00F4B6
:1012D0007010884201D00120EAE70020E8E7000012
:1012E00000100240000042428004424220000020E0
:1012F0000070004010B5401EB0F1807F01D3012086
:1013000010BD4FF0E02460610F21601700F037FE40
:101310000020A06107202061002010BD70477047A9
:1013200070B590F83C20012A26D0012480F83C407A
:10133000022280F83D2003685A689D6822F07006FA
:101340000A6832435A600D4B02689A4208D0B2F1E3
:10135000804F05D00A4B9A4202D00A4B9A4204D1E0
:10136000496825F080031943916080F83D400021D1
:1013700080F83C10084670BD022070BD002C014072
:10138000000400400008004010B5040003D094F8A9
:101390003D0010B107E0012010BD002084F83C00A2
:1013A000204600F01FF8022084F83D00211D20682F
:1013B00000F080FC012084F8460084F83E0084F8A8
:1013C0003F0084F8400084F8410084F8420084F82B
:1013D000430084F8440084F8450084F83D00002070
:1013E00010BD000008B500680B49884212D10B48B7
:1013F000816941F4006181618069002200F400602C
:10140000009005211920FFF7D7FCBDE808401920FE
:10141000FFF7C4BC08BD0000002C014000100240D2
:1014200090F83D10012901D001207047022180F879
:101430003D1000680B49884208D0B0F1804F05D0BC
:101440000949884202D00949884204D1816801F0E3
:101450000701062903D0016841F001010160002065
:1014600070470000002C01400004004000080040CC
:1014700070B5044690F83C000025012817D00126DD
:1014800084F83C60022084F83D002068826822F0E5
:10149000770222F47F4282600868502838D00DDC41
:1014A00020284FD005DC90B3102811D14AE002204B
:1014B00070BD302846D040280AD13BE060282FD0AC
:1014C00070280DD0B0F5805F03D0B0F5005F12D06A
:1014D000012584F83D60002084F83C00284670BD5A
:1014E000CB68D1E90121206800F020FC20688168E8
:1014F00041F0770109E0CB68D1E90121206800F0D3
:1015000015FC2068816841F480418160E1E719E0C1
:10151000CA684968206800F01BFC5021206806E07A
:10152000CA684968206800F024FC6021206800F047
:1015300007FCCEE7CA684968206800F009FC402132
:101540002068F4E7226801461046F0E770472DE96D
:10155000F04104460068C66805694FF00007A90716
:1015600013D5B10711D5F91E01610120207720683C
:1015700080698007204602D0FFF7E8FF04E000F012
:101580007EF8204600F07CF82777680716D57007AC
:1015900014D521686FF004000861022020772068CC
:1015A000806910F4407F204602D0FFF7CFFF04E0AF
:1015B00000F065F8204600F063F82777280715D576
:1015C000300713D521686FF00800086104202077E8
:1015D0002068C0698007204602D0FFF7B7FF04E00B
:1015E00000F04DF8204600F04BF82777E80616D5B6
:1015F000F00614D521686FF01000086108202077EC
:101600002068C06910F4407F204602D0FFF79EFF9B
:1016100004E000F034F8204600F032F82777E807BD
:1016200008D0F00706D021686FF00100086120465D
:1016300000F028F8280608D5300606D521686FF096
:10164000800008612046FFF769FE680608D570062D
:1016500006D521686FF040000861204600F022F8AE
:10166000A8060AD5B00608D521686FF020000861E9
:101670002046BDE8F041FFF752BEBDE8F08170475B
:10168000704700000549884207D10548D0E900129B
:10169000491C42F10002C0E900127047900E002080
:1016A000801C00207047704770470000F8B5016843
:1016B00004460868CA684B6910F00F0F4FF0000528
:1016C00059D003F0010602F49077374365D0C10783
:1016D00005D0D10503D5616C41F00101616441077A
:1016E00005D5D90703D0616C41F00201616481071F
:1016F00005D5D90703D0616C41F00401616401078D
:1017000007D502F02001314303D0616C41F008019C
:101710006164616C00293AD0800604D5900602D538
:10172000204600F067FB20684069616CC0F38010C0
:10173000090700D460B3204600F035FB20684069FB
:10174000400621D52068143050E8001F21F04001E8
:1017500040E80012002AF5D1E06BA8B16D49416361
:10176000E06BFFF745F9002811D0E06B416B01B049
:10177000BDE8F040084783060FD593060DD52046F7
:10178000BDE8F84000F036BB2046FFF78DFFF8BDFE
:101790002046FFF789FF6564F8BD266B2023012EE4
:1017A0007CD1C6067AD5D60678D5086848680090F8
:1017B00048694FF00206400640D5E16B0868406872
:1017C0000004000CE8D0A28D8242E5D9E08588694A
:1017D00020282DD020680C3050E8001F21F48071A3
:1017E00040E80012002AF5D12068143050E8001FAC
:1017F00021F0010140E80012002AF5D120681430E0
:1018000050E8001F21F0400140E80012002AF5D105
:1018100084F84230256320680C3050E8001F21F026
:10182000100140E80012002AF5D1E06BFFF7BDF887
:101830006663A08DE18D401A81B22AE0A08DE18D12
:10184000401A81B2E08D0028A6D00029A4D02268D9
:101850000C3252E8000F20F4907042E80007002F8D
:10186000F5D12068143050E8002F22F0010240E842
:101870000027002FF5D184F84230256320680C3012
:1018800050E8002F22F0100240E80023002BF5D191
:1018900066632046FFF707FFF8BDFFE705062BD577
:1018A000150629D594F841002128F5D1A068B0F596
:1018B000805F01D12069B0B1206A411C216221689A
:1018C00000784860E08C401E0004000CE084E3D106
:1018D0002068C16821F08001C1602068C16841F0C2
:1018E0004001C160D8E7206A0088C0F30800486062
:1018F000206A801C2062E5E74006CDD55006CBD596
:10190000CA68204622F04002CA6084F8413000F0E4
:1019100076F8C1E7971D000870B5040004D094F86C
:101920004100002510B106E0012070BD84F8405050
:10193000204600F023F8242084F841002068C16884
:1019400021F40051C160204600F0B6FA2068016918
:1019500021F4904101612068416921F02A0141612F
:101960002068C16841F40051C1606564202084F89A
:10197000410084F842006563002070BD30B585B039
:10198000002400940194029403940068184988424A
:101990002CD11848816941F480418161816901F449
:1019A00080410491816941F0040181618069124D97
:1019B00000F0040004904FF40070009002200190A9
:1019C0000320039069462846FFF78AF82815CDE9D9
:1019D0000004694628460294FFF782F80022052198
:1019E0002520FFF7E9F92520FFF7D8F905B030BD2C
:1019F0000038014000100240000801407047704765
:101A0000FEE7000010B5A4B01C221C496846FEF792
:101A10002CFD0021684600F0EFFA194C17491C22F2
:101A200020601C3107A8FEF720FD002107A800F068
:101A3000E3FA124960601C2238310EA8FEF715FD4A
:101A400000210EA800F0D8FA0C49A0601C225431E5
:101A500015A8FEF70AFD002115A800F0CDFA0749E8
:101A6000E0601C2270311CA8FEF7FFFC00211CA8BE
:101A700000F0C2FA206124B010BD0000482E00081A
:101A800000000020F0B585B000252548009501959F
:101A900002950395816941F008018161816901F036
:101AA00008010491816941F00401816180691D4F41
:101AB00000F00400049000224FF470613846FFF7F4
:101AC00004F90320009018480124CDE90104694677
:101AD0003846FFF705F84FF44060CDE900040226D0
:101AE000CDE9024669463846FEF7FAFF4FF44070EA
:101AF0008DE8710069463846FEF7F2FF00220521A5
:101B00000620FFF759F90620FFF748F900220521C2
:101B10000720FFF751F90720FFF740F905B0F0BDA6
:101B200000100240000C01400000111010B586B0FA
:101B300000241848009401940294039404941449D6
:101B4000059401600821C0E901144FF47A71C0E9DD
:101B500003148021C0E90541FFF716FC08B1FEF728
:101B600022FF4FF48050009069460A48FFF780FC3E
:101B700008B1FEF718FF049404A906480594FFF77E
:101B8000CFFB002801D0FEF70EFF06B010BD00000D
:101B9000002C0140900E00200C4810B50A4901604D
:101BA0004FF4E1314160002181600C22C160C0E945
:101BB00004128161C161FFF7AFFE002803D0BDE8C8
:101BC0001040FEF7F0BE10BD00380140D80E0020D6
:101BD000FEE7FEE710B502210348FFF771F8012880
:101BE00000D0002010BD00000008014010B5012108
:101BF0000348FFF765F8012800D0002010BD000061
:101C000000080140FEF7DEFDFEF7B8FE142000F0EC
:101C1000E7F9F9E7012000F0E3F9FBE7012000F024
:101C2000DFF9FBE7012000F0DBF9FBE700F0C6FC81
:101C300000F0E8FCC82000F0D3F9F9E710B5FFF791
:101C40004FF801F02BF8012803D0BDE8104000F058
:101C5000B7BF10BD10B590B028216846FEF737FC1D
:101C600014210AA8FEF733FC022000900120049002
:101C700010200024059007946846FFF7ABF908B1DF
:101C800072B6FEE70F20CDE90A040C940D940021F2
:101C90000AA80E94FFF7C2F8002801D072B6FEE73A
:101CA00010B010BD704700000148FFF750BC0000A5
:101CB000900E0020F0B50268194B1A4C1A4D4FF0E7
:101CC0008047984205D0B84203D0A04201D0A84234
:101CD00003D122F070064A683243984205D0B842D8
:101CE00003D0A04201D0A84203D122F44074CA68B4
:101CF00022434C6922F08002224302608A68C26259
:101D00000A688262984201D1096901630121416137
:101D10000169C90703D0016921F001010161F0BD2A
:101D2000002C0140000400400008004010B5846809
:101D300042EA032224F47F440A432243826010BD16
:101D4000826822F070020A4342F007018160704706
:101D500010B5036A046A24F001040462846924F063
:101D6000F00444EA021423F00A020A438461026286
:101D700010BD10B5036A046A24F01004046284697B
:101D800023F0A00324F4704444EA023243EA011130
:101D90008261016210BD10B5406A0021C185C18415
:101DA000FFF782FC10BD01680C3151E8002F22F4CE
:101DB000907241E80023002BF5D10168143151E8FD
:101DC000002F22F0010241E80023002BF5D1016B26
:101DD000012909D101680C3151E8002F22F01002CD
:101DE00041E80023002BF5D1202180F8421000218A
:101DF0000163704708B590F84210222901D00220F3
:101E000008BD82684FF480539A4201D1016921B123
:101E1000816A9A421BD04AB10AE00268816A52681C
:101E2000C2F308020A80816A891C08E0026972B163
:101E30000268526802F07F020A70816A491C81625E
:101E4000C18D491E0904090CC18503D01BE002683D
:101E50005268F1E70168CA6822F02002CA6001688E
:101E6000CA6822F48072CA6001684A6922F00102DD
:101E70004A61202180F8421000214163026B012A4F
:101E800003D0FFF7BBFD002008BD016301680C31E2
:101E900051E8002F22F0100241E80023002BF5D179
:101EA00001680A68D20602D50A6849680091818DE6
:101EB000FFF7F9FBE7E7000070B504460068016929
:101EC000E26821F44051114301612169A06808438F
:101ED000616908432168CA6841F20C639A4302436E
:101EE000CA6020684169A26921F4407111434161CF
:101EF0001E492068884202D1FFF736F801E0FFF75B
:101F000023F800EBC00101EB00126068642180003F
:101F1000B2FBF0F3B3FBF1F36FF018067343B2FBBF
:101F2000F0F5B2FBF0F605EB8305322303EB051564
:101F3000B5FBF1F5B6FBF1F605F0F00505EB06157E
:101F4000B2FBF0F6B2FBF0F0B0FBF1F06FF018026C
:101F5000504306EB800003EB0010B0FBF1F021686A
:101F600000F00F002844886070BD00000038014078
:101F70000148FFF79BBB0000D80E0020FEE70907D1
:101F8000090E002804DB00F1E02080F800147047FF
:101F900000F00F0000F1E02080F8141D7047303889
:101FA0000A2801D20120704700207047FEF7A0FEEA
:101FB000FFF750FEFFF766FDFFF7EEFDFFF7B6FDFA
:101FC0000348FFF72DFAFFF71DFD00F010F8FEE7BC
:101FD000900E002001460020842900D0C81C7047C4
:101FE00010B500B9012000F005FD002010BD10B5AE
:101FF00000F026FD002010BD7FB50D460446416966
:10200000B0F9080081B1A16971B1FFF7E3FFD4E92C
:1020100005128DE80700D4E900102B46226900F074
:1020200012FE039004B070BDFFF7D4FF03A9CDE901
:102030000001208A2B4682B2D4E9001000F0D6FDC0
:10204000012801D00020EDE70398EBE701490120CA
:1020500008817047A01C00202DE9F041184C0F4664
:102060000546E6682068001D00F0FDFB38B92068D1
:1020700090F82C1001208840216981432161681C5F
:1020800007D137B12168BDE8F0410E48091D00F0C5
:102090002DBC20683544B5424560216805D2A06B4F
:1020A000BDE8F041091D00F009BC606B091D00F09E
:1020B00005FCA06A854200D2A562BDE8F08100005F
:1020C00024000020FC0F00202DE9F041054600F01F
:1020D00019FC2E4CA068401CA06020682C4F10B149
:1020E000606940B32DE02560A068012829D1002651
:1020F00006EB860007EB800000F0D2FB761C072E73
:10210000F6D323488C3000F0CBFB2148A03000F000
:10211000C7FB1F48B43000F0C3FB1D48C83000F0B7
:10212000BFFB1B48DC3000F0BBFB19488C30606300
:102130001430A06305E02068E96AC06A884200D8CC
:102140002560606A401C6062E96A0120226988405B
:102150001043206101EB810007EB8000291D00F096
:10216000C5FB00F0EFFB606900280CD02068E96A2D
:10217000C06A884207D207494FF080500860BFF319
:102180004F8FBFF36F8FBDE8F08100002400002067
:10219000200F002004ED00E010B5044690F8510037
:1021A00058B101280CD002280FD0502080F311889C
:1021B000BFF34F8FBFF36F8FFEE7206B00F0D6FBAE
:1021C0002046BDE8104000F0D1BB10BD10484FF4D0
:1021D0004061420706D0C01D0D4920F00700411A9A
:1021E000C1F540610B4A00230144C2E900030839EC
:1021F000183A21F0070111604B600B600B1AC0E91F
:10220000001393604FF0004053605061704700002E
:102210001010002078000020144E154CA6F1C807BD
:102220004FF08058DFF84C9012E000BF00F06AFBDE
:10223000F068C568281D00F016FBA068401EA0606D
:102240006068401E606000F07DFB2846FFF7A4FF39
:1022500060680028EAD138680128F9D9C9F80080F7
:10226000BFF34F8FBFF36F8FF2E70000E80F00203E
:102270002400002004ED00E02DE9F0479A46DDE956
:10228000098481466FF00303206B03EB8202104444
:10229000089E20F00707780707D0502080F31188A8
:1022A000BFF34F8FBFF36F8FFEE7002561B10020B2
:1022B00023180A5C83F834200A5C12B1401C1028F1
:1022C000F6D384F8435001E084F83450072E00D34D
:1022D0000626E662C4E91165201D00F0ECFA04F15F
:1022E000180000F0E8FA2461C6F107006462A061FA
:1022F000E56484F8505052464946384600F0C0F82C
:102300002060B8F1000F01D0C8F80040BDE8F087A8
:1023100030B5114900E011460A688242FBD34B6890
:102320005C18844203D140681844486008464368FA
:102330001C18944209D1084C183C2468A24209D0C8
:1023400052681A4442600A6812680260814200D0F2
:10235000086030BD0460F9E7780000200648416B52
:10236000096829B1416BC968C968496881627047C9
:102370004FF0FF31FAE700002400002008484068D1
:10238000401C4FF0500080F3118804D0BFF34F8FF2
:10239000BFF36F8FFEE7BFF34F8FBFF36F8FFEE783
:1023A000800000202DE9F0410546002700F07EFB6B
:1023B000324E306808B9FFF709FF706905424ED107
:1023C000C5B3083568070ED005F00700C0F1080056
:1023D0000544680707D0502080F31188BFF34F8F62
:1023E000BFF36F8FFEE72DB37068854237D823485F
:1023F000183001460C6801E020460C466168A9428D
:1024000002D221680029F7D131688C4227D00768B1
:102410002168016060680837411B10290FD96019D5
:10242000420708D0502080F31188BFF34F8FBFF3CD
:102430006F8FFEE713E041606560FFF769FF616839
:102440007068401A7060B268904200D2B0607069E3
:1024500001430020C4E90001F068401CF06000F076
:1024600091FC780707D0502080F31188BFF34F8F7D
:10247000BFF36F8FFEE73846BDE8F08160000020B3
:1024800010B5031F4FF080741C601B1F21F0010169
:102490001960191F024B0B60143940380A6010BDD7
:1024A0007D230008024A0020C2E9000070470000B6
:1024B000A01C002070B50D46044600F04BF805F056
:1024C000070040F0080060700020207070BD05E03B
:1024D000401EC0B200BF00BF00BF00BF0028F7D140
:1024E000704700004FF000034FF0060209B10349A6
:1024F00001E00249891D00F0A4B90000FE2E000889
:102500002DE9FF4700250C9F0560456088468560E2
:102510009946164604460721C560FFF7CBFF2046C3
:1025200000F018F8C4F80480A681C4F80890E78188
:102530001120CDE90105032003906946009640462D
:10254000FEF7CEFA694648460097FEF7C9FA2570AD
:10255000BDE8FF8710B5044602E000BFFEF794FA1D
:10256000207801284FF00100F8D0207010BD10B580
:10257000C18980680022FEF7A8FBBDE81040142046
:10258000FFF7A5BF10B50446C18980680022FEF799
:102590009CFB1420FFF79BFFA18901226068FEF7D6
:1025A00094FB1420FFF793FFE1890122A068FEF756
:1025B0008CFBBDE810401420FFF789BF38B54FF4FD
:1025C00000600E4C42102346009019460C48FFF75D
:1025D00097FF6015421000900948234619461030B5
:1025E000FFF78EFF01210648FFF77CFFBDE838406A
:1025F000034801211030FFF775BF0000000C0140B7
:10260000B01C00202DE9F041294C3C220023D4E9E4
:102610000001FDF729FE16B226813C220023FDF7BA
:1026200023FE15B265813C220023FDF71DFE0A2022
:1026300096FBF0F113B200FB11621E49A38196FBD9
:10264000F0F6E2818F5C1C4A36B2177026828E5DEE
:10265000567095FBF0F600FB165695FBF0F566827A
:102660008E5D2DB246F080069670A5824D5DD570C8
:1026700093FBF0F500FB153593FBF0F0E5824D5D23
:1026800000B245F0800515712083085C507100236D
:102690000622094904F1300000F0D3F804F12000CB
:1026A00000220168BDE8F041203000F059B8000078
:1026B000801C00200A2F00089000002070B50E46F4
:1026C00004460025A18900226068FEF7FEFA142066
:1026D000FFF7FDFEF007E189A06801D0012200E0CC
:1026E0000022FEF7F2FA1420FFF7F1FEA189012281
:1026F0006068FEF7EAFA1420FFF7E9FE6D1C760821
:10270000EDB2082DDED3A18900226068FEF7DDFA64
:10271000E1890122A068FEF7D8FA1420FFF7D7FE5E
:10272000A18901226068FEF7D0FA1420FFF7CFFEDE
:10273000E189A068FEF7C4FA050004D1E18900220E
:10274000A068FEF7C2FA1420FFF7C1FEA18900229B
:102750006068FEF7BAFA1420FFF7B9FE284670BD8C
:102760002DE9FF4116460F460546FFF7F3FE00240C
:1027700000943B4613A2072102A80194FDF798FD9F
:10278000114B00214FF0400C02AF6A46785C2D28B7
:1027900007D0A0F1300EBEF1090F11D8C05C505423
:1027A00001E002F801C0491CC9B20629EED3334644
:1027B00006226946284600F009F82C70BDE8FF8122
:1027C0005454F4E725640000DA2E00082DE9F041A6
:1027D0001C4615460E460746052B30D8062D00D957
:1027E0000625FFF7C4FE40213846FFF767FF38464D
:1027F000FFF7C8FE3846FFF7BAFE04F00300C0300A
:10280000C1B23846FFF75AFF002405E0315D384673
:10281000FFF754FF641CE4B2AC42F7D33846FFF72D
:10282000B1FE3846FFF7A3FE78788030C1B2384653
:10283000FFF744FF3846BDE8F041FFF7A3BEBDE80F
:10284000F0812DE9F0411D4616460F460446FFF77C
:1028500081FE2B46324639462046FFF7B7FF00205F
:102860002070BDE8F081D0E9013201699A60D0E9B9
:1028700001235A604A68824201D182684A6000227C
:1028800002610868401E086008687047034B0360D7
:1028900003F1540008608020106070473C0C002059
:1028A00000F108014FF0FF32C0E90112C16001617F
:1028B00000210160704700210161704730B50B684D
:1028C0005A1C02D000F1080202E0026904E022462C
:1028D000546825689D42FAD953684B6099608A60B4
:1028E000516008610168491C016030BD42684A605E
:1028F00093688B6093685960916008610168491C16
:1029000001607047502080F31188BFF34F8FBFF3F1
:102910006F8F0A494868401C486001280CD108485C
:10292000006810F0FF0F07D0502080F31188BFF32C
:102930004F8FBFF36F8FFEE77047000080000020CD
:1029400004ED00E00849486828B1401E486001D104
:1029500080F311887047502080F31188BFF34F8FA8
:10296000BFF36F8FFEE700008000002070B50028E5
:102970002AD0164DA0F1080460686969084207D1A1
:10298000502080F31188BFF34F8FBFF36F8FFEE7A6
:1029900022683AB1502080F31188BFF34F8FBFF304
:1029A0006F8FFEE78843606000F080F860686968B8
:1029B000084468602046FFF7ABFC2869401C28618A
:1029C000BDE8704000F0DEB970BD0000600000207E
:1029D0004FF0E02000210161816105494FF47A72D6
:1029E0000968B1FBF2F1491E41610721016170479D
:1029F0002000002010B5020014D00F48006B38B141
:102A0000502080F31188BFF34F8FBFF36F8FFEE725
:102A100000F04CF800211046FFF71EFB00F0B2F961
:102A2000002807D105494FF080500860BFF34F8F51
:102A3000BFF36F8F10BD00002400002004ED00E004
:102A400010B586B00024039405AA04A903A8049431
:102A5000FFF71CFFDDE903010094CDE9011000231D
:102A60000EA11048059A00F0EEF80F490028C86240
:102A700011D0502080F31188BFF34F8FBFF36F8FB9
:102A80004FF0FF30886201204861CC6006B0BDE89D
:102A9000104000F041B806B010BD000049444C455C
:102AA0000000000019220008240000200248016BE9
:102AB000491C016370470000240000201448016B8A
:102AC00011B10121C16170470021C1610169B1FAF1
:102AD00081F1C1F11F0101EB81020E4951F8223051
:102AE0006BB101EB820101F108034A6852684A6048
:102AF0009A4201D152684A60D16801607047502003
:102B000080F31188BFF34F8FBFF36F8FFEE7000094
:102B100024000020200F00201CB5264908780190D1
:102B2000FF20087008788DF800009DF800009DF8DF
:102B3000002000F0F000904207D0502080F3118870
:102B4000BFF34F8FBFF36F8FFEE79DF800001A4C65
:102B500000F0500020700720A06005E09DF80020E4
:102B600052008DF80020401E9DF800201206F5D47A
:102B7000A060032807D0502080F31188BFF34F8F47
:102B8000BFF36F8FFEE74FF44070A06001980870AC
:102B90000A48016841F470010160016841F0704128
:102BA0000160FFF715FF00206060FDF703FB0020C8
:102BB0001CBD000000E400E08000002020ED00E0EB
:102BC00010B5502080F31188BFF34F8FBFF36F8F84
:102BD00000F072F818B104494FF0805008600020EE
:102BE00080F3118810BD000004ED00E02DE9FF5FC7
:102BF0008346DDE90E87994616468A469000FFF720
:102C0000D1FB05001CD05420FFF7CCFB040014D0EE
:102C10000020256384F85100CDE90240CDE900870A
:102C20004B46324651465846FFF726FB2046FFF7F3
:102C30004BFA012004B0BDE8F09F2846FFF796FE4E
:102C40004FF0FF30F6E7F0B585B0DDE90B640A9D83
:102C5000A6B1DCB1542700972663022684F85160A0
:102C6000002604AFCDE90246CDE90057FFF704FB8B
:102C70002046FFF729FA049805B0F0BD502080F3F4
:102C80001188BFF34F8FBFF36F8FFEE7502080F3A3
:102C90001188BFF34F8FBFF36F8FFEE7054841697F
:102CA00019B1006B18B10020704701207047022055
:102CB00070470000240000202DE9F0412F4C002631
:102CC000206B28B1A069401CA0613046BDE8F081AE
:102CD000E5686D1CE56013D1606B006838B1502069
:102CE00080F31188BFF34F8FBFF36F8FFEE7606BE8
:102CF000A16B6163A063206A401C2062FFF72EFB7A
:102D0000A06ADFF87C80854209D3606B0068A0B1BF
:102D1000606BC068C7687868854211D2A06220687D
:102D2000C06A00EB800158F82100012800D9012673
:102D3000E0690028C9D00126C7E74FF0FF30EDE772
:102D4000381DFFF790FDB86A18B107F11800FFF7BA
:102D50008AFDF96A0120226988401043206101EB55
:102D6000810108EB8100391DFFF7C0FDF86A216879
:102D7000C96A8842C9D30126C7E7000024000020A1
:102D8000200F00202DE9F0472C4D00242746286B0A
:102D900038B1FFF7B7FD286B401E2863286B40B1A0
:102DA00046E0502080F31188BFF34F8FBFF36F8F41
:102DB000FEE7A968224E0120D1B3A6F1B4098046EE
:102DC0003068E8B1F068C46804F11800FFF74BFD03
:102DD000201DFFF748FDE06A2A6908FA00F1114357
:102DE000296100EB800109EB8100211DFFF77EFDC9
:102DF000E06A2968C96A8842E2D3C5F81C80DFE727
:102E00000CB1FFF7ABFAAC6944B14646FFF754FF8B
:102E100000B1EE61641EF9D10020A861E86938B103
:102E20000849012738070860BFF34F8FBFF36F8F42
:102E3000FFF788FD3846BDE8F08700002400002039
:102E4000D40F002004ED00E0202F0008251C00080E
:102E5000000000000000000080000000980000203A
:102E600098020020482F00082D1C0008FDFF0000DC
:102E70000000000080000000EC020020EC040020B4
:102E8000382F00081D1C0008FDFF00000000000096
:102E90008000000040050020400700202C2F000883
:102EA000051C0008FDFF000000000000800000007D
:102EB0009407002094090020142F0008151C000816
:102EC000FDFF00000000000080000000E809002075
:102ED000E80B0020010202030405060708090A0B9B
:102EE0000C0D0E0F10100000000000000000010289
:102EF0000304060708090000000001020304FFFFA5
:102F0000FFFFFFFF0000000000003F065B4F666D03
:102F10007D077F6F636D645F6C696E650000000004
:102F200064656661756C745461736B00627574746A
:102F30006F6E5F7461736B00636F756E7465725F43
:102F40007461736B000000007365675F6469737080
:102F50006C617900742F00080000002098000000C8
:102F6000280100080C30000898000020982200007A
:102F70004401000800000000000000000000000004
:102F80000000000000000000010000001000000030
:102F90000000000000127A000000000000000000A5
:102FA0000000000000000000000000000000000021
:102FB0000000000000000000000000000000000011
:102FC0000000000000000000000000000000000001
:102FD00000000000000000000000000000000000F1
:102FE00000000000000000000000000000000000E1
:102FF0000000000000000000AAAAAAAA0000000029
:0C300000000000003F0000000000000085
:04000005080000ED02
:00000001FF
